S01D00004652444D4B4C34365F44656D6F5F66726565646F6D2E73726563B8
S1130000F85F0020110400002F810000218100000E
S11300102181000021810000218100002181000054
S11300202181000021810000218100002181000044
S11300302181000021810000218100002181000034
S11300402181000021810000218100002181000024
S11300502181000021810000218100002181000014
S11300602181000021810000218100002181000004
S113007021810000218100002181000021810000F4
S113008021810000218100002181000021810000E4
S11300902181000021810000136F000021810000F4
S11300A0416D0000218100009D720000218100004B
S11300B021810000218100004B810000218100008A
S11300C0FFFFFFFFFFFFFFFFFFFFFFFFFFFFFFFF3C
S11300D0FFFFFFFFFFFFFFFFFFFFFFFFFFFFFFFF2C
S11300E0FFFFFFFFFFFFFFFFFFFFFFFFFFFFFFFF1C
S11300F0FFFFFFFFFFFFFFFFFFFFFFFFFFFFFFFF0C
S1130400FFFFFFFFFFFFFFFFFFFFFFFFFEFFFFFFF9
S113041000200021002200230024002500260027BC
S113042062B607F0E7F8FEE780B502F08CFA2B49D4
S1130430088002F0B2FA2A49088002F0D8FAC049CA
S1130440088002F046FC2749088002F07AFC26491D
S1130450088002F0B1FCB549088000F001F801BD44
S113046080B520480021405E02F008FDB04902F04A
S113047010FDAC4908601C480021405E02F0FEFCFF
S1130480AB4902F006FDA8490860A8480021405E77
S113049002F0F4FCA64902F0FCFCA64908600F48EF
S11304A00021405E02F0EAFCA64902F0F2FCA249F7
S11304B008600B480021405E02F0E0FCA14902F014
S11304C0E8FC9E4908609E480021405E02F0D6FC8C
S11304D09C4902F0DEFCA249086001BDB60C002074
S11304E0B80C0020B00C0020B20C0020F8B58E48E7
S11304F0006802F027FD4900490802000B001400BF
S11305001D008848006802F01DFD22002B0002F047
S113051033FD8DA20CCA02F0C7FD00228C4B02F001
S113052085FE00228B4B02F0BFFD8BA20CCA02F0A9
S1130530BBFD02F055FF05007E48006802F002FD95
S11305404900490802000B0016001F0076480068A5
S113055002F0F8FC32003B0002F00EFD7AA20CCA55
S113056002F0A2FD00227A4B02F060FE0022794BD9
S113057002F09AFD78A20CCA02F096FD02F030FF58
S113058004006848006802F0DDFC490049080200E4
S11305900B0016001F006748006802F0D3FC32000D
S11305A03B0002F0E9FC68A20CCA02F07DFD0022C7
S11305B0674B02F03BFE0022664B02F075FD66A21B
S11305C00CCA02F071FD02F00BFF052D00DB0425BF
S11305D0052C00DB0424052800DB0420AB4996220B
S11305E052006A4389183C22624389180C22424310
S11305F089188968A54A96235B006B43D2183C236B
S11306006343D2180C234343A14E3688D6529F4AE3
S113061096235B006B43D2183C236343D2180C230C
S11306204343D2189B4B1B885380984A96235B0004
S11306306B43D2183C236343D2180C234343D21890
S11306403F4B1B889380914A96235B005D4352196C
S11306503C235C4312190C23584310188E4A126829
S113066082600020C04381425AD18C4800686028CF
S113067005DA8A480068401C8849086050E08648CA
S11306800268002000900100002300E05B1C052BA1
S113069037DA002431E07D4E96277F005F43F61958
S11306A03C276743F6190C276F43F619B6680027F1
S11306B0FF43BE421DD0754E96277F005F43F61957
S11306C03C276743F6190C276F43F619B668964220
S11306D00FDA1900009428006C4A962676004E43DF
S11306E09219009E3C277E4392190C264643921988
S11306F092686D1C052DCEDB641C052CC6DA002522
S1130700F8E7624A96235B0059435118009A3C2348
S11307105A4389180C22504308180021C9438160A8
S1130720F1BD0000DCE7FF1FE0E7FF1FB40C002071
S1130730FEFF7F39E4E7FF1FB8E7FF1FBCE7FF1F99
S1130740BA0C0020CDCCCC3D00000020DCA54C40F0
S11307500080564000001440000000206CC1763F29
S1130760C0E7FF1F70B54E480068002818D04D48F8
S113077000684D49096802F094FE4C4908604C48F1
S113078000684C49096802F08CFE4B4908604B48EC
S113079000684B49096802F084FE4A4908600BE08E
S11307A0404800684149086041480068424908607F
S11307B0424800684349086043480068002864D000
S11307C04248006801683948006802F062FB010091
S11307D00C003E48006841683748006802F059FB45
S11307E0210002F026FE01000C00384800688168F0
S11307F03448006802F04DFB210002F01AFE0500A7
S11308003248406801682948006802F042FB010050
S11308100C002E48406841682748006802F039FB04
S1130820210002F006FE01000C002848406881689F
S11308302448006802F02DFB210002F0FAFD0600B6
S11308402248806801681948006802F022FB010010
S11308500C001E48806841681748006802F019FBC4
S1130860210002F0E6FD01000C0018488068816850
S11308701448006802F00DFB210002F0DAFD0B4978
S11308800D600D490E600F49086070BD20E8FF1F20
S1130890B60C0020B80C002018E8FF1F1CE8FF1F4E
S11308A01CE4FF1FB8E7FF1FFCEDFF1FC4E7FF1F99
S11308B0BCE7FF1F00EEFF1FC8E7FF1FC0E7FF1FD5
S11308C004EEFF1FCCE7FF1F20E4FF1F2CEEFF1FE9
S11308D0F3B583B016001F000A9D0B9C3800390045
S11308E002F0D7FA00902800290002F0D2FA009909
S11308F002F09FFD00902000210002F0CAFA009946
S113090002F097FD02F01EFB02F023FE02F081FECE
S11309100100FE20800502F0ADFE029003990398C9
S113092002F0B7FA00900499049802F0B2FA009920
S113093002F07FFD00903000310002F0AAFA009925
S113094002F077FD02F0FEFA02F003FE02F061FE0F
S11309500100FE20800502F08DFE0190039839000D
S113096002F097FA00900498290002F092FA009994
S113097002F05FFD00902000310002F08AFA009935
S113098002F057FD0100029802F083FA0100019879
S113099002F07FFA02F0D6FA02F0C2FE02F039FE4B
S11309A00100C84802F075FAC7490860200002F047
S11309B0C9FA02000B0000920193280002F0C2FA67
S11309C0009A019B02F0D8FA02F023FE0100BD4810
S11309D002F05FFABD490860BC480168BC4802F0F7
S11309E058FA02F0AFFA03F06CF902F012FE02902A
S11309F0B6480168B64802F04CFA02F0A3FA03F0D4
S1130A005BF902F006FE01900499019802F041FAA4
S1130A1000900298310002F03CFA0100009802F0C4
S1130A2040FDAC4908600499029802F032FA009043
S1130A303100019802F02DFA009902F0FAFC060048
S1130A400298290002F025FA01000D000198210006
S1130A5002F01FFA290002F0ECFC02001000002151
S1130A6003F034F90CD13800002103F03FF903D826
S1130A7099489A49086015E099489849086011E036
S1130A808020000647403800110002F0F3FD02F018
S1130A9059FA03F03FF902F0BCFD8A4902F0F9F972
S1130AA08E4908608D480168894802F0F2F902F025
S1130AB049FA03F006F902F0ACFD05008748016825
S1130AC0834802F0E6F902F03DFA03F0F5F802F08B
S1130AD0A0FD04000398210002F0DBF901000F00DF
S1130AE03000290002F0D5F9390002F0A2FC7D495A
S1130AF008600398802109064840290002F0C9F9DA
S1130B0001000F003000210002F0C3F9390002F0A7
S1130B1090FC754908607548006800281AD071482F
S1130B20006802F00FFA02000B0016001F0069486B
S1130B30006880210906484002F004FA32003B00B4
S1130B4002F01AFA02F065FD5E4902F0A2F99D492D
S1130B50086017E0039802F0F5F902000B00160094
S1130B601F00049880210906484002F0EBF9320086
S1130B703B0002F001FA02F04CFD524902F089F9FF
S1130B80904908608F480168514802F082F902F0E8
S1130B90D9F903F096F802F03CFD06008948016893
S1130BA04B4802F076F902F0CDF903F085F802F033
S1130BB030FD070083480068002103F011F906D2D4
S1130BC080480168804802F034FC7E4908607D4812
S1130BD000687E4908602000390002F05AF97C4917
S1130BE0096808602000310002F053F97849096867
S1130BF048602800802109064840754909688860D2
S1130C003800290002F045F90100029802F041F988
S1130C1000900198310002F03CF90100009802F0C4
S1130C2040FC6B49496808600198390002F031F9C9
S1130C3000900298290002F02CF9310002F029F901
S1130C40009902F0F6FB6249496848600298210065
S1130C5002F01FF95E49496888600198390002F082
S1130C6018F9290002F015F900900298310002F0F9
S1130C7010F9009902F0DDFB554989680860019874
S1130C80290002F006F9310002F003F90500029888
S1130C90390002F0FEF80100280002F002FC4C4981
S1130CA0896848600198210002F0F3F8484989688E
S1130CB088604849464801F00FFB00F0C0FE05B0CB
S1130CC0F0BD0000E12E654208E8FF1FE8E7FF1FC2
S1130CD035FA8E3CD4E7FF1F0000B4C2F0E7FF1FD3
S1130CE00000B442D0E7FF1FD8E7FF1F24E4FF1F32
S1130CF080B539480068002862D0BE4800681828CA
S1130D0057DB3648006800280BD0344800680028B8
S1130D1054D0B9480068FA21490003F08AF8002940
S1130D204CD100F083F82E4800682E49096802F07F
S1130D30DDFF29D82C4800682C4902F0D7FF23D8BE
S1130D40294800682A4903F04BF81DD2294803F0CA
S1130D5010FB24480068224908602348006826499B
S1130D600860264800682649086026480068264925
S1130D7008602648006826490860032303222549A1
S1130D80254800F007FB02E0244803F0F2FA144877
S1130D900168234802F07DF8224902F07AF8974965
S1130DA002F077F80E49096802F043FB0C49086029
S1130DB004E0904801681C4803F0DBFA01F0CCFC25
S1130DC001BD0000F8E7FF1F0000B44300E8FF1F67
S1130DD00CEFFF1F4C09002018E4FF1F14E8FF1F4D
S1130DE03CEEFF1FE0EEFF1FDCEEFF1F0000A04003
S1130DF00100C8420085000038EEFF1FA0EEFF1F6F
S1130E00FCEDFF1FA4EEFF1F00EEFF1FA8EEFF1F67
S1130E1004EEFF1FD0EEFF1F2CEEFF1F28850000FD
S1130E207E735A3B0000FA43A4860000F0B587B0F5
S1130E30734803F09EFA6F4802686F48016871486E
S1130E4003F097FA002003900490059000240020FA
S1130E50019002E00198401C01900198052800DBF4
S1130E60B1E000200090A8E0674801999622520062
S1130E705143401800993C22514340180C216943C6
S1130E80401880680021C943884200D18EE05E4842
S1130E900199962252005143401800993C22514333
S1130EA040180C216943405E01F0E8FF574901F006
S1130EB0F0FF06005448019996225200514340180D
S1130EC000993C22514340180C21694340180221E7
S1130ED0405E01F0D3FF4D4901F0DBFF07004A48B3
S1130EE00199962252005143401800993C225143E3
S1130EF040180C21694340180421405E01F0BEFFF4
S1130F000100424801F0C5FF0690002C03D105966C
S1130F100497069803903000059902F0C2FA374905
S1130F2001F0B7FF02903800049902F0BAFA33498D
S1130F3001F0AFFF06000698039902F0B2FA2F49B8
S1130F4001F0A7FF07000299029801F0A2FF3049BF
S1130F5004226243895808603000310001F099FF8F
S1130F602B4904226243895848603800390001F053
S1130F7090FF2749042262438958886002982449D3
S1130F80042262438958C8602148042161434058BF
S1130F9006611F480421614340584761FE208005D3
S1130FA01B490422624389588861641C6D1C052D09
S1130FB000DA59E70098401C00900098052800DBEF
S1130FC048E70025F3E7072001900720009009482F
S1130FD003680F4A0E49ED4800F0F7F9E94BDA4A85
S1130FE00721EA4800F031FA0024D7480068016874
S1130FF001221EE01CE8FF1F18E8FF1F0AD7A33CCC
S1131000BC8700007881000020E8FF1FCDCCCC3DD8
S1131010F8F9FF1FCC4804235343C058006802F07A
S1131020DFFE05D21400C84804216143405801681A
S1131030521C072AEEDBD348006804216143405860
S1131040CF4909680860CF4840680421614340588B
S1131050CB4949684860CB488068042161434058C3
S1131060C749896888600020C54989684860C449BF
S113107089680860C24949688860C149496808604C
S1131080BF4909688860BE4909684860BD48C068AE
S1131090042161434158BF20000601F0FAFEB8491B
S11310A00968096802F0E6FAAB490860B5480069C6
S11310B0042161434158BF20000601F0EAFEB04913
S11310C04968496802F0D6FAA4490860AD48406905
S11310D0042161434158BF20000601F0DAFEA8490B
S11310E08968896802F0C6FA9D490860A4480068C6
S11310F00168A3484068406801F0CBFEA0498968B4
S1131100896801F0C6FE9C4908609B48006800217C
S113111002F066FE19D2032303228A49984800F09C
S11311200FFC9848806904216143405880210906D6
S11311304840944989690422624388508E48006873
S11311408021090648408C4908608D480068016880
S11311508148006801F09DFE7F49096801F099FE0D
S113116001000D008648406841687C48006801F031
S113117090FE7A49096801F08CFE290002F059F9C1
S113118001000D007E48806881687548006801F0A0
S113119080FE7349096801F07CFE290002F049F9D8
S11311A07849896904226243895802F07AF901F086
S11311B0C9FE4900490802F0CCF902F02AFA6F4945
S11311C00860614804214C430059006801F0BAFEEC
S11311D004000D006D006D085C48006803F0FEF823
S11311E002000B002000290003F002F902F0B1F91B
S11311F002F00FFA564901F04CFE04005F48016802
S11312008020C00501F045FE5C49096801F041FEFB
S11312100100200002F02EFA4E4908604E48016891
S1131220504801F036FE059902F003F94A49086076
S11312304A4801684B4801F02CFE049902F0F9F881
S11312404649086046480168464801F022FE039971
S113125002F0EFF84249086048480168414801F04B
S113126018FE4649086040A20CCA14001D004248FA
S1131270006801F067FE22002B0003F0DDFC03236D
S1131280032215001C0002F0C4F9010023002A0007
S11312903B4800F055FB36A20CCA14001D0036482A
S11312A0006801F04FFE22002B0003F0C5FC02F0A1
S11312B0B0F93249096801F0ECFD30490860304862
S11312C00068006801F03EFE4900490802F041F957
S11312D002F09FF92C490968086029484068406871
S11312E001F030FE4900490802F033F902F091F9A7
S11312F025494968486022488068806801F022FED8
S11313004900490802F025F902F083F91E49896869
S1131310886000201C49896848601B498968086006
S11313201949496888601849496808601649096874
S1131330886015490968486001201549086007B0AC
S1131340F0BD0000000080BF54FDFF1F1CE8FF1F1C
S11313500000C842E0EEFF1FA0EEFF1FA4EEFF1F37
S1131360A8EEFF1F00004842000000605555D5BF9D
S1131370000000605555C5BFE4EEFF1FDCEEFF1F03
S113138064EEFF1F3CFCFF1FD0EEFF1F1CFDFF1F80
S113139014E8FF1FF4B5002211E004255543465913
S11313A004276743B446042555434E590425654331
S11313B075596646F551641C9C42EEDB521C009C38
S11313C0A24201DA0024F7E7F1BDFEB582B00400C1
S11313D0002500E06D1C0A98854234DA002626E0D8
S11313E00420684321580422724300920191029818
S11313F0042179434058042169434158039A042045
S11314007843125804207043105801F042FD04211F
S11314106943625804217143515802F00AF8019952
S1131420009A88507F1C04988742D9DB761C0B985D
S11314308642CFDA042068432058042171430022F5
S113144042500027EFE705B0F0BDFFB587B00500B7
S1131450002020E00A9A04234343D25804234B4338
S11314600024D450491C089A9142F3DB0A990422BF
S11314704243895804224243FE239B058B50042196
S113148041436958042242438958099A0423434337
S1131490D2581160401C0899884201DA0021E2E721
S11314A0002006900020059000261AE0059801F01F
S11314B049FD0090019104207043285804216143A0
S11314C0405801F03FFD49004908009A019B01F092
S11314D0ADFE02F09EF80590641C08988442E5DB9A
S11314E0761C0898401E864202DA3400641CF4E735
S11314F005988021090402F0F9FB00D9F7E10020E6
S1131500029002E00298401C029002980899491E39
S1131510884200DBEBE1029C641C4BE0029804214E
S113152048432858042171434758029804214843EA
S1131530295804227243009201910498390001F061
S1131540A8FC042161436A5804217143515801F0F5
S113155070FF039901F09DFC0100380001F0A1FF28
S11315600199009A88500420604329580422724348
S1131570009201910499042060432A580420704386
S1131580105801F086FC0100380001F08AFF03992D
S113159001F07FFC04216143695804227243895895
S11315A001F047FF0199009A8850761C08988642FA
S11315B0B4DB641C08988442A4DA029804214843EA
S11315C0285804216143405801F0BCFC49004908F3
S11315D0002280235B0303F047FDEAD80998042125
S11315E06143405800680999029A04235A43895870
S11315F0096801F056FFFC21890501F04AFC0299B3
S113160004225143695804226243895802F032F893
S11316100700380001F096FC490049086A4603C2F5
S1131620083A3800390001F034FCFE21890501F044
S113163000FF01F087FC01F08CFF02000B006846FC
S113164003C801F0F3FD01F0E4FF0100FE20800572
S113165002F010F806003800002102F0C1FB02D2AB
S11316608020000646403000310001F012FCFE21CB
S1131670890501F0DEFE01F065FC01F06AFF01F06E
S1131680C8FF0100FE20800501F0F4FF07003000D0
S1131690390001F0FEFB0390FE208005390001F0C3
S11316A0C8FE0100039801F0E5FF049002980421AC
S11316B048432858042161434058310001F0E9FBB4
S11316C006000998029904225143405800683100E9
S11316D001F0E7FE0999029A04235A4389580860E5
S11316E009980421614340580068310001F0A1FECB
S11316F009990422624389580860029804214843E6
S11317002858042161430022425000264DE00A98E3
S113171004217143405802990422514347580A98BE
S1131720042171434158029A0420424300920191DA
S11317300498390001F0ADFB0A9A04217143525810
S113174004216143515801F074FE039901F0A1FB97
S11317500100380001F0A5FE0199009A88500A980A
S11317600421714341580422624300920191049977
S11317700A9A04207043125804206043105801F060
S113178088FB0100380001F08CFE039901F081FB15
S11317900A9904227243895804226243895801F049
S11317A048FE0199009A8850761C08988642AEDB60
S11317B0002647E00420704328580299042251432C
S11317C04758042070432958029A04204243009247
S11317D001910498390001F05CFB042171436A58BB
S11317E004216143515801F024FE039901F051FB97
S11317F00100380001F055FE0199009A8850042038
S113180070432958042262430092019104990420F0
S113181070432A5804206043105801F03AFB010039
S1131820380001F03EFE039901F033FB04217143BB
S1131830695804226243895801F0FBFD0199009A1A
S11318408850761C0298401EB042B3DA029E761C81
S113185047E002980421484328580421714347581B
S113186002980421484329580422724300920191AA
S11318700498390001F00DFB042171436A580421D6
S11318806143515801F0D5FD039901F002FB0100B9
S1131890380001F006FE0199009A88500420704334
S11318A02958042262430092019104990420704350
S11318B02A5804206043105801F0EBFA0100380064
S11318C001F0EFFD039901F0E4FA04217143695832
S11318D004226243895801F0ACFD0199009A8850B2
S11318E0761C601EB042B4DA2600761C5EE60598CB
S11318F08021090402F0FAF906D806990800401C70
S113190006900F2900DACDE5002010E004224243BE
S1131910AA5804234B4304244C432C59042646431D
S1131920A459D450491C089A9142EFDB401C0899F1
S1131930491E884202DA0100491CF4E70BB0F0BDED
S1131940F7B582B004001D00002616E004207043A1
S1131950215804227A4300920191042070432058B4
S1131960042179434158039801F093FA0199009AAC
S113197088507F1CAF42E9DB761C0498864201DA6A
S11319800027F7E705B0F0BDFEB582B004000025DE
S113199000E06D1C0498854234DA002626E0042019
S11319A06843215804227243009201910298042151
S11319B069434058042179434158039A04207843E9
S11319C0125804207043105801F063FA042169434B
S11319D0625804217143515801F02BFD0199009A7A
S11319E088507F1C0A988742D9DB761C0B98864264
S11319F0CFDA042068432058042171430022425066
S1131A000027EFE705B0F0BD70B5002212E0042412
S1131A105443045904255D43002666515B1C8B42E4
S1131A20F5DB04235343C35804245443FE25AD0576
S1131A301D51521C8A4201DA0023F0E770BDE0B563
S1131A403D480068002809D1032303223B493C4850
S1131A50FFF7A0FC3B4800683B49086003230322CE
S1131A6037493A48FFF796FC032001900320009081
S1131A700323334A3149364800F07AF800200290B3
S1131A8002AA3449324800F0B3F80298F6218905D5
S1131A9001F0FFF902002F492D4800F0D3F903208B
S1131AA00190032000900323254A29492A48FFF77F
S1131AB06BFF0323032228492148FFF76BFC2748C7
S1131AC00068002810D126480090264B264A274952
S1131AD01B4800F0E5FA23480368234802682348BA
S1131AE00168174800F040FB164800681649096869
S1131AF001F0D7FC02900298CA4902F0F7F804D822
S1131B000298C94901F095FC02900298C74902F075
S1131B1067F904D20298C64901F08BFC029002983E
S1131B20F621890501F0B5F90749096801F081FC3E
S1131B300549086007BD000018E8FF1F0CEFFF1FF0
S1131B403CEFFF1F08E8FF1F0CE8FF1F6CEFFF1FAF
S1131B50F40800203C090020240900204809002042
S1131B6004E8FF1FFCE7FF1FF4E7FF1FECE7FF1F7C
S1131B70FEB582B00400002500E06D1C0498854287
S1131B8034DA002626E004206843215804227243F4
S1131B900092019102980421694340580421794339
S1131BA04158039A04207043125804207843105873
S1131BB001F06FF9042169436258042171435158BB
S1131BC001F037FC0199009A88507F1C0A988742DB
S1131BD0D9DB761C0B988642CFDA04206843205860
S1131BE004217143002242500027EFE705B0F0BD05
S1131BF0F8B505000C00170028680168686840689B
S1131C0001F017FCA968896801F013FC06006868F4
S1131C108068A968496801F044FC21680860A868E4
S1131C2000682968896801F03CFC616808602868DC
S1131C3040686968096801F034FCA168086020689C
S1131C4001682068006801F024F900906068016868
S1131C506068006801F01DF9009901F0EAFB00904A
S1131C60A0680168A068006801F013F9009901F008
S1131C70E0FB01F067F901F06CFC01F0CAFC020022
S1131C801000002102F022F83DD0FE208005110052
S1131C9001F0F0FC050020680068290001F0F9F863
S1131CA02168086060680068290001F0F2F8616842
S1131CB00860A0680068290001F0EBF8A1680860DA
S1131CC030005C4902F012F802D80020386019E0B4
S1131CD03000594902F084F802D25848386011E0C3
S1131CE05748310001F0A5FBFC21890501F0D1F82A
S1131CF001F028F903F0D2F901F08BFCE74901F077
S1131D00C8F838608DE030008021090401F0EEFF4E
S1131D100DD8FE208005216808600020A1680860B5
S1131D20A0680068616808600020386079E028686D
S1131D300168FE20800501F07CFBFC21890501F08F
S1131D40A8F801F0FFF84900490801F002FC01F08D
S1131D5060FC2168086028684068002101F0C6FF23
S1131D6014D868684168FE20800501F062FBFC21FC
S1131D70890501F08EF801F0E5F84900490801F001
S1131D80E8FB01F046FC6168086016E06868416899
S1131D90FE20800501F04DFBFC21890501F079F856
S1131DA001F0D0F84900490801F0D3FB8022120663
S1131DB0514001F02EFC61680860286880680021A9
S1131DC001F094FF14D8A8688168FE20800501F012
S1131DD030FBFC21890501F05CF801F0B3F84900FF
S1131DE0490801F0B6FB01F014FCA168086016E094
S1131DF0A8688168FE20800501F01BFBFC21890591
S1131E0001F047F801F09EF84900490801F0A1FBF0
S1131E1080221206514001F0FCFBA16808600748CB
S1131E203860F1BD010034430000B4C3000034C382
S1131E300000B44300004040FFFF7FBF0000344374
S1131E40000080BFFEB505000C002068006800217A
S1131E5001F03CFF21D160680068002101F036FFE9
S1131E601BD1A0680068002101F030FF15D1FE20CD
S1131E708005A9688860696848602968086000204E
S1131E80A9684860A968086069688860696808602A
S1131E902968886029684860FFE01600B14831006D
S1131EA000F0F7FF01F04EF801F00BFF01F0B1FB79
S1131EB00700AC48310000F0ECFF01F043F801F0FA
S1131EC0FBFE01F0A6FB0190FE208005019901F0C4
S1131ED0E8FA0600206801682068006800F0D9FF6D
S1131EE00090606801686068006800F0D2FF0099A3
S1131EF001F09FFA0090A0680168A068006800F0F3
S1131F00C8FF009901F095FA01F01CF801F021FBDB
S1131F1001F07FFB0100FE20800501F0ABFB009087
S1131F2020680168009800F0B4FF216808606068C8
S1131F300168009800F0ADFF61680860A06801685E
S1131F40009800F0A6FFA168086020680168206876
S1131F50006800F09EFF310000F09BFF0100019833
S1131F6001F067FA296808606068016860680068C1
S1131F7000F08FFF310000F08CFF0100019801F0A8
S1131F8058FA69684860A0680168A068006800F0B1
S1131F9080FF310000F07DFF0100019801F049FA53
S1131FA0A9688860206801686068006800F071FFB3
S1131FB0310000F06EFF0090A0680068390000F066
S1131FC068FF009901F035FA2968486020680168C3
S1131FD06068006800F05DFF310000F05AFF009077
S1131FE0A0680068390000F054FF0100009801F077
S1131FF058FA6968086020680168A068006800F001
S113200048FF310000F045FF009060680068390027
S113201000F03FFF0100009801F043FA296888604E
S113202020680168A068006800F033FF310000F008
S113203030FF009060680068390000F02AFF0099C2
S113204001F0F7F9A968086060680168A068006891
S113205000F01FFF310000F01CFF009020680068B2
S1132060390000F016FF009901F0E3F9696888600F
S113207060680168A068006800F00BFF310000F0A0
S113208008FF060020680068390000F002FF010024
S1132090300001F006FAA9684860F7BDE12E6542F8
S11320A0FEB506000D0017001C0030688068FE2194
S11320B0890501F01BFE02D88348386018E03068B7
S11320C08068824901F08CFE02D2814838600FE0BA
S11320D03068806880210906484000F033FF01F031
S11320E01FFB01F096FA01007A4800F0D2FE386036
S11320F0B068806800F026FF02000B000092019394
S11321007068806800F01EFF009A019B00F034FFA5
S113211001F07FFA6F4900F0BCFE28603068006867
S113212000F010FF02000B00009201933068406839
S113213000F008FF009A019B00F01EFF01F069FA0D
S1132140644900F0A6FE20602068002101F048FEEA
S113215004D22168D34801F06CF920600898216802
S11321600160F7BD35FA8E3CF8B584B004000E006A
S11321701500CD48310000F08CFE00F0E3FE01F0C4
S1132180A0FD01F046FA0390C748290000F081FE43
S113219000F0D8FE01F095FD01F03BFA029004999D
S11321A0C14800F076FE00F0CDFE01F08AFD01F09A
S11321B030FA0190BC48310000F06BFE00F0C2FE22
S11321C001F07AFD01F025FA0600B748290000F075
S11321D060FE00F0B7FE01F06FFD01F01AFA050091
S11321E00499B14800F055FE00F0ACFE01F064FD26
S11321F001F00FFA07002800390000F04AFE2168B8
S113220008600198290000F044FE216848600298A3
S1132210802109064840216888600298390000F04E
S113222038FE0100039800F034FE0090019831005C
S113223000F02FFE0100009801F033F96168086096
S11322403000390000F025FE00900399029800F058
S113225020FE019900F01DFE009901F0EAF8616882
S113226048600398290000F014FE6168886030001B
S1132270390000F00EFE0100029800F00AFE009002
S11322800399019800F005FE009901F0D2F8A168C5
S113229008600298310000F0FCFD0100019800F094
S11322A0F8FD00903900039800F0F3FD0100009858
S11322B001F0F7F8A16848602800310000F0E9FD5A
S11322C0A168886005B0F0BD0000B4C2FFFF7FBF05
S11322D00000B442E12E6542F8B505000C00286800
S11322E00168FE20800501F0A4F86968496801F0DE
S11322F0A0F8A968896801F09CF88021090401F01C
S1132300F5FC44D800F01EFE01F023F901F081F938
S1132310FC21890500F0BDFD2060FE2080052168B8
S113232001F0A8F90700FA208005390000F0B1FD9A
S113233001000E0068688068A968496801F0B1F876
S1132340310000F0A6FD6060FA208005390000F03D
S1132350A0FD01000E00A86800682968896801F0E2
S1132360A0F8310000F095FDA060FA208005390046
S113237000F08FFD01000E00286840686968096854
S113238001F08FF8310000F084FDE06050E000209F
S1132390206028680168FC20800500F07AFDFC219B
S11323A0890501F046F800F0CDFD4900490801F027
S11323B0D0F801F02EF9606068684168FC2080055F
S11323C000F067FDFC21890501F033F800F0BAFD47
S11323D04900490801F0BDF801F01BF9A060A868A4
S11323E08168FC20800500F054FDFC21890501F082
S11323F020F800F0A7FD4900490801F0AAF801F00F
S113240008F9E06028684068002101F0E9FC04D282
S1132410A068802109064840A060286880680021DF
S113242001F0DEFC04D2E068802109064840E06047
S1132430F1BD10B503214548FFF7E6FA00204449F1
S11324400860444908604449086000204349086022
S11324504348444908600020434908600020434938
S11324600860002042490860002000E0401C052864
S113247017DA002111E0B74B9624640044431B197A
S11324803C244C431B190C2454431B190024E443DF
S11324909C60521C052AEEDB491C0529E6DA002261
S11324A0F8E710BD0000B44335FA8E3CE0B5FDF703
S11324B0BBFFFEF71BF8FEF755F92E4800680190A4
S11324C02D48006800902D4803682D4802682D4867
S11324D001682D480068FEF7FBF900F027F922484F
S11324E00068002829D029492948006802F05CFEC8
S11324F02849086028492948006802F055FE2849FF
S1132500086028498448006802F04EFE8349086048
S1132510FF20683081490968401A804908607F4873
S113252002687F497F4801F035FF7E4802F005FFCD
S11325307A4800687C49086001E0FEF7D9FB0B4843
S11325400068401C0949086007BD00002CEEFF1F0D
S113255004EEFF1F00EEFF1FFCEDFF1F38EEFF1F10
S113256000007A443CEEFF1F14E8FF1F18E8FF1F29
S11325701CE8FF1FE4E7FF1FE0E7FF1FDCE7FF1F86
S1132580CCE7FF1FC8E7FF1FC4E7FF1FC4E6FF1F18
S11325905C09002068090020E8E6FF1F60090020AC
S11325A06C0900200CE7FF1F80B5002050E0734940
S11325B00C2242438918724A04234343D15071497F
S11325C00C2242438918704A04234343D1506F4973
S11325D00C22424389186E4A04234343D1506D4967
S11325E00C22424389186C4A04234343D1506B495B
S11325F00C22424389186A4A04234343D15069494F
S11326000C2242438918684A04234343D150674942
S1132610042242438918664A04234343D15065493E
S11326200C2242438918644A04234343D15063492A
S11326300C2242438918624A04234343D15061491E
S11326400C2242438918604A04234343D150401C5E
S11326500328ACDB002020E05C49042242438918B3
S11326605B4A04234343D1505A4904224243891804
S1132670594A04234343D1505849102242438918EC
S1132680574A04234343D1505649102242438918E0
S1132690554A04234343D150401C0428DCDB00206A
S11326A018E052491C2242438918514A04234343E7
S11326B0D15050491C22424389184F4A04234343B2
S11326C0D1504E490422424389184D4A04234343BE
S11326D0D150401C0728E4DB002018E049491C22A3
S11326E042438918484A04234343D150474910229E
S11326F042438918464A04234343D150454904229E
S113270042438918444A04234343D150401C60285F
S1132710E4DBFFF78EFE01BD640900207009002090
S1132720C48B00007409002010E8FF1F80B53B48EB
S1132730006802F081FE3A4908603A48006802F0F5
S11327407BFE394908603948006802F075FE384953
S1132750086001BD20E8FF1FE0B50020354800688F
S113276064214843182101F064FB020032496846A1
S113277001F010FE684602F0E0FD07BD08EEFF1F01
S11327802CEEFF1FACEEFF1FD0EEFF1F40EEFF1F2D
S113279064EEFF1F70EEFF1F94EEFF1FD0080020B1
S11327A0F40800200009002024090020300900203A
S11327B03C090020E8EEFF1F0CEFFF1F18EFFF1F7E
S11327C03CEFFF1F48EFFF1F6CEFFF1F6008002066
S11327D070080020F00700200008002010080020E6
S11327E05008002080080020C008002078FBFF1F4C
S11327F03CFCFF1F58FCFF1F1CFDFF1F38FDFF1F83
S113280054FDFF1F78EFFF1FF8F9FF1F70FDFF1F36
S113281070030020F004002070060020E8E7FF1F8A
S11328205C090020F0E7FF1F60090020F8E7FF1FA4
S1132830640900201CE8FF1FCC8B000070470000D7
S113284000B5002001E000BF401C2828FBDB00BDD0
S113285010B504007B4802F02FFE1C21794802F0D9
S113286027FE784802F03AFE764802F040FE210046
S1132870C9B2744802F01CFE724802F02FFE71487F
S113288002F035FE6F4802F00EFE1D216D4802F085
S11328900FFE6C4802F022FE6A4802F028FE6948E6
S11328A002F0EDFD674802F0F9FD664802F002FE11
S11328B0644802F013FE634802F007FE614802F028
S11328C0F9FD0400FFF7BCFF2000C0B210BD38B50D
S11328D004000D005B4802F0EFFD1C21594802F092
S11328E0E7FD584802F0FAFD564802F000FE2100C8
S11328F0C9B2544802F0DCFD524802F0EFFD5148E1
S113290002F0F5FD2900C9B24E4802F0D1FD4D4850
S113291002F0E4FD4B4802F0EAFD4A4802F0D5FD1E
S1132920FFF78EFF31BD80B5FFF788FF002110202F
S1132930FFF7CDFF80211120FFF7C9FF01211020EF
S1132940FFF7C5FF01BD80B50020FFF781FF000739
S1132950000F00281DD00120FFF77AFF00023A493A
S113296008800220FFF774FF37490988C0B2014389
S1132970354801800120FFF76BFF000235490880CC
S11329800220FFF765FF33490988C0B2014331488B
S1132990018030480021405E02BD80B50020FFF771
S11329A057FF0007000F00281DD00320FFF750FF3A
S11329B00002264908800420FFF74AFF23490988BA
S11329C0C0B20143214801800320FFF741FF000208
S11329D0214908800420FFF73BFF1F490988C0B242
S11329E001431D4801801C480021405E02BD80B5A2
S11329F00020FFF72DFF0007000F00281DD0052041
S1132A00FFF726FF0002124908800620FFF720FF87
S1132A100F490988C0B201430D4801800520FFF722
S1132A2017FF00020D4908800620FFF711FF0B492C
S1132A300988C0B201430948018008480021405E6A
S1132A4002BD000000600640980C00209A0C002093
S1132A509C0C00209E0C0020A00C0020A20C002046
S1132A6080B5D44802F04BFD01BD000000B5002044
S1132A7001E000BF401C2828FBDB00BD10B50400AA
S1132A80CC4802F019FD3A21CA4802F011FDC948A8
S1132A9002F024FDC74802F02AFD2100C9B2C5484E
S1132AA002F006FDC34802F019FDC24802F01FFD02
S1132AB0C04802F0F8FC3B21BE4802F0F9FCBD48D6
S1132AC002F00CFDBB4802F012FDBA4802F0D7FC3C
S1132AD0B84802F0E3FCB74802F0ECFCB54802F059
S1132AE0FDFCB44802F0F1FCB24802F0E3FC04003F
S1132AF0FFF7BCFF2000C0B210BD38B504000D00C4
S1132B00AC4802F0D9FC3A21AA4802F0D1FCA94809
S1132B1002F0E4FCA74802F0EAFC2100C9B2A5488F
S1132B2002F0C6FCA34802F0D9FCA24802F0DFFC84
S1132B302900C9B29F4802F0BBFC9E4802F0CEFCBB
S1132B409C4802F0D4FC9B4802F0BFFCFFF78EFFC8
S1132B5031BD80B5FFF784FF2A20FFF78FFF0121E5
S1132B600143C9B22A20FFF7C8FF01BD80B5002088
S1132B70FFF784FF0007000F002800D183E0012045
S1132B80FFF77CFF0002A84908800220FFF776FFC8
S1132B90A5490988C0B20143A3480180A248002185
S1132BA0405E00B28010A04908800320FFF766FF52
S1132BB000029E4908800420FFF760FF9B490988B2
S1132BC0C0B201439948018098480021405E00B298
S1132BD08010964908800520FFF750FF00029449B1
S1132BE008800620FFF74AFF91490988C0B20143D3
S1132BF08F4801808E480021405E00B280108C49CD
S1132C0008800120FFF73AFF00028A490880022069
S1132C10FFF734FF87490988C0B201438548018022
S1132C2084480021405E00B20012824908800320DB
S1132C30FFF724FF0002804908800420FFF71EFFED
S1132C407D490988C0B201437B4801807A4800214C
S1132C50405E00B20012784908800520FFF70EFF9D
S1132C600002764908800620FFF708FF73490988A7
S1132C70C0B201437148018070480021405E00B237
S1132C8000126E49088001BD80B5FFF76FFF6948E7
S1132C900021405E6A49086067480021405E694936
S1132CA0086066480021405E67490860674801F093
S1132CB060FB63480168664801F05BFB614801689A
S1132CC0644801F056FB60480168634801F051FB19
S1132CD001BD80B50020FFF7D1FE0007000F0028DA
S1132CE02BD00120FFF7CAFE00024F4908800220C2
S1132CF0FFF7C4FE4C490988C0B201434A48018029
S1132D0049480021405E00B28010474908800120F4
S1132D10FFF7B4FE0002474908800220FFF7AEFE29
S1132D2044490988C0B20143424801804148002116
S1132D30405E00B200123F4908803E480021405ED8
S1132D4002BD80B50020FFF799FE0007000F0028A0
S1132D502BD00320FFF792FE0002344908800420A0
S1132D60FFF78CFE31490988C0B201432F48018026
S1132D702E480021405E00B280102C4908800320B8
S1132D80FFF77CFE00022C4908800420FFF776FE42
S1132D9029490988C0B201432748018026480021F7
S1132DA0405E00B200122449088023480021405E9E
S1132DB002BD00000060064080B50020FFF75EFE03
S1132DC00007000F00282BD00520FFF757FE000254
S1132DD0174908800620FFF751FE15490988C0B23B
S1132DE001431348018012480021405E00B2801064
S1132DF00F4908800520FFF741FE00020F490880B3
S1132E000620FFF73BFE0D490988C0B201430B4879
S1132E1001800A480021405E00B200120749088080
S1132E2006480021405E02BDA40C0020A60C002030
S1132E30A80C0020AA0C0020AC0C0020AE0C002032
S1132E409CE7FF1FA0E7FF1FA4E7FF1F888800007F
S1132E50D48A0000E08A0000EC8A00009D21020070
S1132E600AD002D4491E9218FCD5C905100A1206CC
S1132E70524100D3012A4841704700009D210200BD
S1132E80EED55242F446FFF7EBFF0122D20710437E
S1132E90604730B405004D400122D20715404B185D
S1132EA00418240E2ED01B0E32D0FF2C34D0FF2B4E
S1132EB03AD0E4180002090210431143000A090A37
S1132EC09446C2B24A43000AC3B24B43000A484381
S1132ED0110A5B181A43D2B2190A091801D4491805
S1132EE0641E080A7F3C23DBFE2C08DAE40509068D
S1132EF01143634699416041284330BC7047FF2029
S1132F00C005F9E728001B0EFF2BF6D1D043F4E7E8
S1132F102800FF2CF1D1F9E74002F7D1FF2B01D1B2
S1132F204902F3D1E005E7E7D8054902E4D0EDE72B
S1132F3043020020641CDFD15B129B1CDCD9D80542
S1132F40DAE70000012212060118CA420AD28A42B4
S1132F500DD83822120609098918C20FD207114365
S1132F604007704700D049080909014301E0C10F37
S1132F70C907002070470000FBB582B05800401517
S1132F80401C48D048004015401C44D0C80F08D00D
S1132F9002A84C00640803C8210002AC03C408243E
S1132FA000E00024D80F04D05B005B082000062456
S1132FB044401000190000296D4606DA00268027D7
S1132FC03F06361A8F41C0C500E003C502A803C8F6
S1132FD0002906DA002680273F06361A8F41300082
S1132FE039006D46C0CD8F4209DC01DB864206D232
S1132FF01000190002AA0CCA01F0FAF945E028A051
S113300003C81040194001D1002841D002A803C8C8
S113301001F0EEF93CE0080041004915491C04D1D7
S1133020000302D002A803C835E059004915491C21
S113303004D1180302D0100019002CE059004915DE
S1133040491C0DD118030BD102A803C80800410084
S11330504915491C04D1000302D100200F4901E0A5
S11330600020002102AC30CCEC0F00D00824DA0F91
S113307002D022000624544002AA0CCA1A005300AB
S11330805B155B1C04D1120302D1220002245440BC
S1133090220002F089FA05B0F0BD00BF0000F03F45
S11330A0FFFFFFFFFFFFFF7FF0B50E005E4001252D
S11330B0ED072E40B446AE0ADF184C18F44208D28D
S11330C0F7420ED2640D01D07F0D12D1002061466B
S11330D0F0BD05D1F74201D87F0D05D10020C143D1
S11330E0F0BDFBD1640DF9D00020C1434905490866
S11330F08FE0E419C902DB0229432B43DB0A460DA6
S1133100C00231438E4630B487B295B27D432E0C53
S1133110ADB2140C7C43A419260C240425439CB2A0
S11331207C43A419190C7943270CC919A4B20F04C0
S11331303C43090C000C97B247432E0CBE1935438F
S1133140ADB2170C4743360CBF19A6B2BF193E04E3
S11331503543240C3E0C36199FB24743BF19BCB209
S11331603E0C89191F0C47437F183E043443390C25
S1133170704680B297B247432E0CBE193543ADB2A8
S1133180170C4743360CBF19A6B2BF193E0435438A
S1133190240C3E0C36199FB24743BF19BCB23E0CF7
S11331A089191F0C47437F183E043443390C774672
S11331B03F0C90B278432E0C80190604ADB22E4316
S11331C0050CA0B22D18120C7A435019020C80B2CF
S11331D0240CA4189AB27A43121914042043120C32
S11331E089181B0C7B43C91830BCEF0A394203D140
S11331F0B61940414941641E6F12BF0DE41B0BDB3D
S1133200FF19BC4211DA240500274208AE41784177
S1133210614166463143F0BD641C05D1401C6141E7
S1133220CF0201D34908F4E750E75DE7F0B4012584
S1133230ED070F005F404FD48B4200D1824205D985
S11332408446100062468C4619006346DF184C1809
S1133250640D7F0D3AD0661C760537D0E61B352EFB
S113326034DCDB022B43DB0A0C0DC9022943C912EF
S1133270202E0DDB1700203E06D01F00F741F3403F
S11332805F400026012A7741C01871410DD217E032
S11332901700F741F2405740F3415A40B340F3401E
S11332A05A400026801859410AD3A21C52050FD057
S11332B0C207012F724117004008CB071843490881
S11332C0641C24054208AF4170416141F0BC704761
S11332D0641C21050020F9E76B4010E06B40ABE76C
S11332E0F742F3D1E943F1E72442EFD10020002172
S11332F0ECE7F0B40125ED070F005F40EED40C00BD
S1133300871A9C4105D2C01BA141D219634169406F
S11333106B40AE0ADF184C18F442E1D2640D7F0D05
S1133320E2D0E61B362ED1DCDB022B43DB0AA446BB
S11333300C0DC9022943C90A012E28DC04D1D60781
S11333405208DF073A435B08EF0A764290419941FD
S113335014D039423BD1B61940414941761C394217
S113336004D1761C001849413942FAD0B943674662
S1133370B74208D9A41B24052143A7E70042EAD198
S11333803642E8D1A2E7E40AE10700209EE7202EB6
S11333900BDD203E1F00F340F7415F40012A00226D
S11333A057417E42984191410BE01700F741F240AA
S11333B05740F3415A40B340F3405A407E42904153
S11333C099410A0303D2641EB619404149410027BA
S11333D0641E24054208AE4178416141F0BC704747
S11333E0F4464A1805D200F00FF801D580174008BA
S11333F0604700F009F80121C907884200D9080094
S1133400404260474A1812D2400DC90208430121C4
S1133410C9070843520D40210901521A521C06D40F
S113342052421F3201D4D0407047C0177047002069
S113343070470122D20703004B402ED4431A01D215
S1133440C01AC91830B44B180418240E1B0E22D00D
S1133450FF2C20D0E31A182B1DDC09021143C40DE4
S1133460641E0002104394461925ED1A0A00AA406E
S1133470D940451801D36D08A41CE405D209280AD3
S11334802D062A436546AA41604103181B0EFF2BF3
S113349001D3C00DC00530BC7047514006E0514017
S11334A0CCE70122D20703004B40F8D4431A03D2DD
S11334B0C01AC9185040514030B44B180902114386
S11334C00418240E1B0E40D0FF2C3AD025009D4139
S11334D00BD31ED8C50D4002401A0BD3ED050100D5
S11334E0400AC90591416841D5E7C50D4002491814
S11334F0401AD0D001214008491C0018FCD58C4248
S113350004D36D1A000AED054019C4E7E80510401C
S1133510C1E7182DBFDCAC1C0D00E140E5414D4076
S1133520012D4941C40D00021043451A01D46D19FF
S11335309543641EE405280A2D069541604130BC7C
S11335407047FF2BA7D1D843A5E72442A3D100207D
S1133550A1E7012252054B1850D2D3424DD25B0D44
S11335604BD030B41C05A14355082943D40AE41EAA
S11335701B195B0801D3001849411B059C466C19B3
S1133580091B00184941001849416419002392029B
S1133590491B07D46D081DD2091B64190018494141
S11335A0491BF7D56D080AD20919641B0018494153
S11335B0491BEFD56D08F7D301E0520817D0C018A6
S11335C061419B1AAC4100184941801AA941F4D4C5
S11335D052080AD0C01AA1419B186C4100184941F5
S11335E0801AA941E9D45208F4D15B1C6C415808F3
S11335F0E20710436108614430BC7047C90FC90732
S1133600580DFAD0C943D342F7D800B500BF00BF64
S113361000BD012252054B18DA4201D958157047F2
S11336205B0D0722D2019B1A10D9FF2B1DD2DB059B
S11336300122D2070A4013430903020D1143490A28
S1133640C200524100D9491CC81870470AD1800AE7
S11336500A0302435212921C04D9D3070B40D0052B
S113366018437047C80FC0077047C80F0002FF30E7
S1133670C005704730B405004D400122D207154003
S11336804B180418240E28D01B0E2FD0FF2C34D036
S1133690FF2B37D0E41A00020902104311434308F8
S11336A04808D10D1B1A02D2641EDB181B18DB1844
S11336B0834200D31B1A4941F9D37F3426DDFE2C03
S11336C008DAE4054808C9071943914160412843D1
S11336D030BC7047FF20C005F9E728001B0E03D05B
S11336E0FF2BF5D14902F3D0D043F1E7FF2C01D1F0
S11336F04002F9D1FF20C005E9E74002F4D1FF2BD5
S1133700F8D1F1E728004902E2D0EDE70B020020EE
S11337102442DCD15B129B1CD9D9D805D7E7000021
S1133720F8B584B004000D0069004915491C01D1A5
S1133730280351D14FA003C82040294001D10028BB
S11337404AD0E80F0CD100262000290000290BDA0A
S11337506F46002280231B06121A8B410CC705E01A
S11337606D006D080826EFE76A4603C20022F923BC
S11337709B05002B04DA80210906901A99410B005D
S1133780684603C8994202DA002E22D124E00020C0
S11337903C4922002B00FFF7ACFD00900191002072
S11337A0384922002B00FFF741FD009A019BFFF7E7
S11337B07BFCFFF7CEFE02AA03C230A003C8002997
S11337C00DDA6F46002280231B06121A8B410CC7A8
S11337D007E08020000645402000290047E06A46B3
S11337E003C222002B00002B06DA002080210906E8
S11337F0801A994102000B00684603C8994207DB0E
S113380001DC904204D32000290002AA0CCA24E05F
S113381000201C49002906DA6F4680231B06021A81
S11338208B410CC701E06A4603C222002B00002B27
S113383005DA80210906801A994102000B006846C6
S113384003C899420FDB01DC90420CD30222724080
S1133850160002A803C822002B0000F0C9FD3200A4
S113386001F0A2FE03E000BF00BF02A003C805B040
S1133870F0BD00BFFFFFFFFFFFFFFF7FCD3B7F6673
S11338809EA0E63F0000F03FF7B504000D00BCA089
S113389003C822002B00FFF707FC06000F00790085
S11338A04908B9A20CCA01F0B3FF64D2B8490800B0
S11338B03B001A00802109060A400243002011003F
S11338C03200FFF7B3FCFFF78BFD009000284DD0CA
S11338D000F084FD0022D34BFFF7E6FB06000F0047
S11338E0D1A003C832003B00FFF7DEFB02000B004F
S11338F020002900FFF7FDFC04000D00CCA003C844
S113390032003B00FFF7D0FB02000B00200029002F
S1133910FFF7EFFC04000D00C7A003C832003B0012
S1133920FFF7C2FB02000B0020002900FFF7E1FCB7
S113393004000D000020BA4932003B00FFF7B4FB3D
S113394002000B0020002900FFF7D3FC04000D0047
S1133950D7A003C832003B00FFF7A6FB02000B0010
S113396020002900FFF7C5FC04000D00029800990F
S11339708907890FA5E068004015401C09D169003A
S11339804915491C02D1280300D045E1BAA003C857
S113399044E1B9A003C82040294007D1002805D13B
S11339A00298002800D137E1B24D35E130003900EA
S11339B0774B1A003E0080231B061E40164300224C
S11339C03300FFF733FC02000B000018494101D11A
S11339D0002816D09A4E480D361A352E04DB0026E0
S11339E080273F061F400EE0202E03DD203EF340DB
S11339F0B34000E001D1002203E0012E01DBF240DC
S1133A00B24016001F009CA003C83040394001D1C9
S1133A1000284DD00020834932003B00FFF744FBCF
S1133A206A4603C268460CC87FA003C8FFF73CFB84
S1133A3002000B0020002900FFF75BFC04000D00CE
S1133A4068460CC87AA003C8FFF72EFB02000B00DF
S1133A5020002900FFF74DFC04000D0068460CC847
S1133A6075A003C8FFF720FB02000B00200029000B
S1133A70FFF73FFC04000D0068460CC800206849AD
S1133A80FFF712FB02000B0020002900FFF731FCB6
S1133A9004000D0068460CC885A003C8FFF704FBAA
S1133AA002000B0020002900FFF723FC04000D0096
S1133AB00298009030003900FFF792FC8107890FCB
S1133AC00098401802906B005B082200002B05DA76
S1133AD0002080210906801A99410B000020F92159
S1133AE08905002904DA80273F06061A8F41390028
S1133AF0029FFE07F60F00968B4205DA002E00D1D6
S1133B0084E000245B4D81E02B0020002900FFF7B6
S1133B10CBFA06000F00009800283BD049A003C848
S1133B2032003B00FFF7C0FA48A20CCAFFF77EFB45
S1133B3032003B00FFF7B8FA46A20CCAFFF776FB47
S1133B4032003B00FFF7B0FA44A20CCAFFF76EFB49
S1133B5032003B00FFF7A8FA42A20CCAFFF766FB4B
S1133B6032003B00FFF7A0FA40A20CCAFFF75EFB4D
S1133B7032003B00FFF798FA00223E4B42E000BFC0
S1133B8083C8C96D305FE43F0000A0FFFFFFDF4141
S1133B900000E03F32003B0020002900FFF784FAD8
S1133BA00090019136A003C832003B00FFF77CFA75
S1133BB035A20CCAFFF73AFB32003B00FFF774FA58
S1133BC033A20CCAFFF732FB32003B00FFF76CFA5A
S1133BD031A20CCAFFF72AFB32003B00FFF764FA5C
S1133BE02FA20CCAFFF722FB32003B00FFF75CFA5E
S1133BF02DA20CCAFFF71AFB009A019BFFF754FA97
S1133C0022002B00FFF712FB04000D00029880072E
S1133C1002D58020000645402000290003B0F0BDF5
S1133C205C14D33C0000303E00000050FB21B9413D
S1133C3000000060B41011400000002026A6513E90
S1133C403304000009260A1039BA213E3BA861C694
S1133C50F97D92BE63AC30909F01FA3EF6FB51169B
S1133C606CC156BFB10255555555A53FAEFFFFFF78
S1133C70FFFFDFBF0000F03FFFFFFFFFFFFFFF7FFD
S1133C80B08F2FC310D8E53D8F0C73A1E1E55ABE68
S1133C904DADE44FE31DC73E3EE3B519A0012ABF75
S1133CA0FAF010111111813F425555555555C5BFB4
S1133CB0000000209A833B3B80B50122FFF7E4FD1E
S1133CC004BD80B50022FFF7DFFD04BD9446020069
S1133CD00A43921808D0884206D10122120600181D
S1133CE0D042084600D88042624670470CB4012294
S1133CF012060318DA4207D84B18DA4204D8020035
S1133D000A43921802D281420CBC7047FCD088420C
S1133D100CBC7047FEB506000F0078004015401C2F
S1133D2012D179004915491C03D1380301D0300060
S1133D3011E026A003C808003A00802109060A40C1
S1133D400243244811003DE023A003C83040394019
S1133D5003D1002801D1390034E0F80F03D07F00EB
S1133D607F08082400E0002400201749002906DA0F
S1133D706D4680231B06021A8B410CC501E06A467E
S1133D8003C232003B00002B05DA80210906801AA9
S1133D90994102000B00684603C899420DDC01DB1F
S1133DA090420AD20020084932003B0000F020FB78
S1133DB006000F0020000224444022003000390095
S1133DC001F0F2FB03B0F0BD0000F03F182D4454A5
S1133DD0FB21F93F182D4454FFFFFFFFFFFFFF7F36
S1133DE00CB4012212060318DA4207D84B18DA423F
S1133DF004D802000A43921802D288420CBC7047CD
S1133E00FCD08142FAE7F446002804D4494200F089
S1133E1013F8404260474042002905D45FD000F0C7
S1133E200BF8404249426047494200F005F84942D4
S1133E30604703460B43E6D40022030A8B420BD2AD
S1133E4003098B4219D243088B422ED2411A00D265
S1133E500146524110467047FF2209023FD0120624
S1133E608B4205D3121209028B4201D312120902AA
S1133E7003098B4219D300E0090AC3098B4201D319
S1133E80CB01C01A524183098B4201D38B01C01A62
S1133E90524143098B4201D34B01C01A52410309D9
S1133EA08B4201D30B01C01A5241C3088B4201D388
S1133EB0CB00C01A524183088B4201D38B00C01A35
S1133EC0524143088B4201D34B00C01A52418842ED
S1133ED000D3401A5241CFD201461046704708B56C
S1133EE001F0B0FC08BD000010B50C0011680129F8
S1133EF002D0022904D009E0C0B25168884705E025
S1133F00916808709068401C9060FFE72068401C2E
S1133F10206010BDF0B51C00002600230370451C72
S1133F20002A1DD00F68002F06D130202870761C7F
S1133F303000F0BD30320EE0002FF9D038002100FF
S1133F40FFF777FF0100080060433A1A002AF1D511
S1133F50D043020031320F002A706D1C761CEBE74F
S1133F600F68002F08D130202870761CE0E7373026
S1133F700F0028706D1C761C002FD9D0380021004A
S1133F80FFF75AFF010008006043381A0A28EED2EE
S1133F903030EDE7F8B50E0015001F00040005E011
S1133FA03A0029003020FFF79FFF641CB442F7DB7E
S1133FB0F1BDF8B50E0015001F00040005E03A003D
S1133FC029002020FFF790FF641CB442F7DBF1BD09
S1133FD0F1B590B01400002000900E0009E0109A92
S1133FE06946FFF781FF03E02068241D0099016002
S1133FF0761C3078002800D1B8E1252811D00A2891
S113400004D0109A6946FFF76FFF09E0109A6946D9
S11340100D20FFF769FF109A69460A20FFF764FF35
S1134020E6E70027002002E0390001270F430028BB
S11340301FD1761C317820290CD0232912D02B29AA
S113404004D02D29F0D0302908D00FE03900022700
S11340500F43ECE7390004270F43E8E7390008274A
S11340600F43E4E7390010270F43E0E7761E0120F1
S1134070DDE700200190002005E0019A0A235A435D
S1134080511830390191002808D1761C31780A0082
S1134090303A092AF1D9761E0120F4E7701C017820
S11340A02E290BD10021FFE7002908D1401C0278FA
S11340B0303A092AF8D9401E0121F5E7401E401C78
S11340C001784C2906D0682902D06C2901D002E07D
S11340D002E001E000E0401E461C3078010058294F
S11340E071D0622900D1CAE0632900D113E16429A7
S11340F013D0692911D06E2900D175E76F2900D139
S1134100B2E0702900D1C5E0732900D10BE1752913
S113411000D1CAE0782956D061E72068241D0690B2
S11341200A23012206A907A8FFF7F4FE050007A841
S1134130401905900698002803D52D2002906D1C87
S11341400DE0B80703D52B2002906D1C07E078071B
S113415003D5202002906D1C01E000200290002075
S11341600490380711D50298002804D0109A6946A3
S11341700298FFF7B9FE01200490109B6A4601994A
S11341802800FFF707FF019D11E0F8070FD4109BEB
S11341906A4601992800FFF70CFF0298002804D012
S11341A0109A69460298FFF79FFE01200490049834
S11341B0002807D10298002804D0109A6946029872
S11341C0FFF792FE9AE02068241D0390102300223A
S11341D003A907A8FFF79EFE050007A8401905904C
S11341E000200490380715D5F8060BD5109A6946B7
S11341F03020FFF779FE109A69467820FFF774FEA5
S113420001200490109B6A4601992800FFF7C2FE22
S1134210019D18E0F80716D4F80600D5AD1C109BD4
S11342206A4601992800FFF7C4FEF8060BD5109AD8
S113423069463020FFF758FE109A69467820FFF748
S113424053FE01200490F8060DD5049800280AD1E5
S1134250109A69463020FFF747FE109A6946782085
S1134260FFF742FEAD1C49E02068241D039008239B
S1134270002203A907A8FFF74DFE05001FE02068F0
S1134280241D03900223002203A907A8FFF742FE7E
S1134290050014E02068241D03901023002203A9C4
S11342A007A8FFF737FE050009E02068241D0390E6
S11342B00A23002203A907A8FFF72CFE050007A87C
S11342C040190590380707D5109B6A4601992800C4
S11342D0FFF760FE019D11E0F8070FD4109B6A46BA
S11342E001992800FFF765FE08E0109A69460598D1
S11342F00078FFF7F9FD0598401E059005980078B1
S11343000028F2D1F80705D5109B6A4601992800C8
S1134310FFF74FFE6CE62068241DC0B2109A694670
S1134320FFF7E2FD64E62568241D002D1DD028005A
S113433001F089FA0290F8070CD4109B6A4601999F
S11343400298FFF736FE05E0109A69462878FFF7D1
S1134350CBFD6D1C28780028F6D1F80705D5109BF5
S11343606A4601990298FFF724FE41E6009811B0CD
S1134370F0BD0EB4F0B50100012000900448019096
S113438005AA6846FFF724FE049908B00847000010
S1134390C77300000CB4E0B502000020002A09D065
S11343A002200090029204AA6846FFF711FE002141
S11343B0029A1170039906B00847000001004222D6
S11343C01201D21E004207D002D4521E0018FCD59E
S11343D0C10A400512058918704700000100EED596
S11343E04042F446FFF7EBFF0122D2071143604736
S11343F0F0B40E005E400125ED072E40B446AE0A2F
S1134400DF184C18F4423BD2F74241D2640D43D03A
S11344107F0D38D0E41BC902DB0229432B43CF0AAA
S1134420DB0A0600B61A9F4104D2641EB6197F4106
S1134430B6185F416812800D24180018844222DAED
S1134440E80C0021B6197F41B61A9F4102D2B61872
S11344505F413F1C40414941F4D3241C21DD240524
S1134460B6197F41B61A9F4105D33743C607374370
S11344700026012F7041614166463143F0BC70470C
S1134480FCD1F74205D20020C14349054908F3E7AE
S113449004D00020C143F1E77F0DFAD0002061462B
S11344A0ECE72442FAD1401C61410F03F6D300200B
S11344B0E2E770B40123002413E00168001D1942EF
S11344C002D04D466D1E49190C60091D121F042AA5
S11344D0FAD20D00960701D50C80AD1C1A4000D00D
S11344E02C700268001D002AE7D170BC70470000E0
S11344F0F8B58EB004000D001498002802D00020F6
S11345001499086002A80CC002A803C89FA20CCA90
S113451002400B4001D1002A13D000209A49220006
S11345202B0001F09EF90CD0964901F09AF90BD1B9
S113453002A803C8080041004915491C04D100031E
S113454002D10020904937E368004015401C0DD08B
S11345508EA003C82040294001D1002806D002A81B
S113456003C848004015401C00D0F3E06900491519
S1134570491C04D1280302D0200029001CE302A80E
S113458003C8080041004915491C04D1000302D0A6
S113459002A803C810E3012602A803C84800401576
S11345A0401C00D186E002A80CC89018494106D1ED
S11345B0002804D102A803C86A4603C21AE0AC4F1B
S11345C0480D381A352806DB6F460020802109067D
S11345D0194003C70EE0202803DD2038C340834080
S11345E000E001D1002203E0002801DDC240824046
S11345F068460CC002A803C8002907DA04AF0022E9
S113460080231B06121A8B410CC701E004AA03C2C3
S1134610684603C8002906DA002280231B06121A02
S11346208B411000190004AA0CCA8B4201D18242AA
S113463000D00026684603C80B0002185B4104D171
S1134640002A02D1684603C817E0844F5A0DBA1AEB
S1134650352A05DB0B0000208021090619400CE0F7
S1134660202A03DD203AD140914000E001D100200E
S113467003E0002A01DDD0409040002E1AD06A46A3
S11346800CCA002B06DA002680273F06B61A9F4183
S113469032003B00002906DA002680273F06361A3E
S11346A08F41300039008B4203D1824201D1002670
S11346B000E0012669004915491C08D1280306D1E8
S11346C0EC0F02A803C814D1C80F41D033E002A8EC
S11346D003C8080041004915491C13D1000311D136
S11346E02AA6C0CE2F40802149038F4216D2002231
S11346F018E0C80F02D1002E2AD026E0002E1AD0CE
S1134700002008E0002E19D1002402A803C8C80F15
S113471018D1002C14D0802109064DE23E0D50A082
S113472003C8821902A803C8C80F02D1002A0FDCEB
S113473006E0002A0BDD002000213DE2EC0FE4E757
S1134740002139E2002C02D00020474934E2002045
S1134750464931E202A803C80B0002185B4104D1A8
S1134760002A02D102A803C821E0414E5A0DB61A0C
S1134770352E0FDB6A460F000020802109063940E0
S113478016E000BF0000F0BF0000F03FFFFFFFFF96
S1134790FFFFFF7F202E03DD203EF140B14000E00B
S11347A001D1002003E0002E01DDF040B0406A4654
S11347B003C2E80F1FD002A803C8002905DA0022AB
S11347C080231B06121A8B4101E002000B0068468D
S11347D003C8002906DA002680273F06361A8F41CF
S11347E0300039008B4201D1824204D000BF00BFA7
S11347F0BDA003C8E0E120002900BBA430CC0D40DB
S1134800002280235B039D4203D2049200244D4086
S11348100CE02C0DB64A0023DB43121904921A460D
S1134820B04B02400B40AE4D14001D43E80F4AD07C
S11348306D006D0868460CC819009018494101D1F3
S1134840002824D0054E480D361A352E12DB80215F
S11348500906194000220B0019E000BF34040000CF
S113486002FCFFFFFFFFFFFF0000F0FF0000F07FEE
S113487033040000202E03DD203EF340B34000E06B
S113488001D1002203E0002E01DDF240B24068466F
S113489003C8002905DA002680273F06361A8F410F
S11348A001E006000F00002B06DA00208021090633
S11348B0801A994102000B009F4203D1964201D114
S11348C0002000E0012005900498012829D120004F
S11348D02900D0A20CCA00F09BFF22D2002006902F
S11348E00026D14F69004A0D511C002A12D000291C
S11348F010DDC24A914207DB10052900802212060E
S11349001140014300240AE0764A2A400805104376
S1134910050023E0290080221206114000240D0026
S11349201CE00020A54922002B00FEF7BDFB00225D
S11349306B4BFEF77BFCFEF753FD20380090FFF72E
S11349404DFD00229E4BFEF7AFFB0022644BFEF7A9
S11349506DFC06000F00009840010690200029001D
S113496032003B00FEF7C5FC0090019132003B0091
S113497020002900FEF75AFC02000B000098019960
S1134980FFF736FD08AA03C208A803C808AA0CCA80
S1134990FEF78AFB6A4603C22000290032003B006E
S11349A0FEF7A7FC0AAA03C268460CC885A003C880
S11349B0FEF77AFB85A20CCAFEF738FC6A460CCADD
S11349C0FEF772FB83A20CCAFEF730FC6A460CCADF
S11349D0FEF76AFB81A20CCAFEF728FC6A460CCAE1
S11349E0FEF762FB7FA20CCAFEF720FC6A460CCAE3
S11349F0FEF75AFB7DA20CCAFEF718FC6A460CCAE5
S1134A00FEF752FB7BA20CCAFEF710FC0CAA03C2F1
S1134A100020854932003B00FEF76BFC4B005C0D27
S1134A20631C002C12D0002B10DD744CA34206DB57
S1134A302305080080210906084018430AE0294C90
S1134A400C401A0522430400150005E008008021EB
S1134A50090608400024050068460CC80CA803C8D1
S1134A60FEF722FB0AAA0CCAFEF743FC22002B0025
S1134A70FEF7DCFB08AA0CCAFEF716FB02000B00CB
S1134A8071A0069945180AA803C8FEF7CFFB06AA29
S1134A9003C20498FFF7A2FC0CCD083DFEF7C6FB49
S1134AA006000F0006A80CC855A003C8FEF7FCFAC0
S1134AB032003B00FEF7BAFB02AA0CCAFEF7F4FA76
S1134AC00022514B00F0A4FE73D301224F4B00F09F
S1134AD0CBFA65D9CA0F0DD000224D4B0BE000BFB5
S1134AE00000E03FFFFF0F80FFFFFFFFFFFFFF7F9E
S1134AF002FCFFFF494BFEF799FBFEF771FC040033
S1134B0002A803C832003B00FEF7CEFA06000F00ED
S1134B102000FFF763FC02000B0030003900FEF7B1
S1134B20E8FB3FA20CCAFEF7BFFA0090019106A869
S1134B300CC802A803C8FEF7B7FA06000F00280045
S1134B40083003C82A0010320CCAFEF76FFB0200BB
S1134B500B0002A803C8FEF7A7FA31A20CCAFEF79D
S1134B60A3FA32003B00FEF761FB009A019BFEF7BB
S1134B705DFB149A002A01D01460002400940022E2
S1134B80294B00F081FE29A20CCA02400B4001D13E
S1134B90002A0ED04B005B155B1C03D10A0301D124
S1134BA000202449059A002A06D08022120651408A
S1134BB002E000200021F5E70FB0F0BD00005040F6
S1134BC00000903FF7DE29BFD8F8C23FF4B3FECC13
S1134BD01A99C33F62CB68D96F46C73FC6C912DA78
S1134BE0C471CC3F4AE98A942449D23FF75F97992C
S1134BF09999D93FBC5555555555E53FFF070000D8
S1134C00FE822B654715F73F0000E0C00000E0403E
S1134C100000E0BFCD3B7F669EA0E63F0000E03F82
S1134C20EF39FAFE422EE63F0000F03FFFFFFFFFA0
S1134C30FFFFFF7F0000F07F1CB500240094FFF706
S1134C4057FC1CBD00000000000000000000F0BF85
S1134C500000000000000080000000000000008050
S1134C600000000000000000000000C05294EEBFED
S1134C7000000048204E51BE000000F86467BCBC30
S1134C800000000000000000000000208133EDBFA0
S1134C9000000080B3DB14BE000000506706A3BC14
S1134CA00000000000000000000000D0E9DCEBBFC1
S1134CB000000008C39259BE00000080B0D3B8BC05
S1134CC0000000000000000000000070F98FEABF3F
S1134CD0000000C0A51028BE000000E8BFC0B0BCA2
S1134CE0000000000000000000000070284CE9BF34
S1134CF000000060134B42BE000000C03D20B8BC61
S1134D00000000000000000000000050FA10E8BF9E
S1134D10000000C05FF62BBE000000905C71A7BCD1
S1134D20000000000000000000000020FCDDE6BFE1
S1134D30000000C0F8F154BE00000018E9F6B9BC48
S1134D400000000000000000000000D0C3B2E5BF76
S1134D5000000070E43254BE00000050DB06B4BC16
S1134D60000000000000000000000010EF8EE4BF0F
S1134D7000000020F36252BE000000C02A879ABCE3
S1134D800000000000000000000000B02272E3BF39
S1134D90000000F0E8E056BE00000028352DBDBC40
S1134DA00000000000000000000000000A5CE2BFF8
S1134DB0000000B0FA8E41BE00000040AE6FBDBCE2
S1134DC0000000000000000000000000564CE1BF9D
S1134DD0000000F015CD5FBE00000000141C90BC64
S1134DE0000000000000000000000040BD42E0BFE1
S1134DF000000030F93457BE000000E06C1E93BC84
S1134E000000000000000000000000E0F57DDEBFAF
S1134E10000000B08A535EBE00000080DA77AABCAE
S1134E200000000000000000000000C09D81DCBF05
S1134E3000000000FFA226BE0000006057E2B0BCE4
S1134E40000000000000000000000060F98FDABFDD
S1134E50000000580A8151BE000000F05F60B8BC39
S1134E6000000000000000000000000098A8D8BF67
S1134E70000000607A7F45BE000000D05433A3BC1C
S1134E800000000000000000000000600FCBD6BF4F
S1134E90000000D091CB40BE000000406D1BA0BCC0
S1134EA00000000000000000000000A0FBF6D4BFDA
S1134EB000000098C5CE52BE000000003A397EBC06
S1134EC00000000000000000000000E0FE2BD3BF43
S1134ED00000004073872BBE00000000926879BC7C
S1134EE0000000000000000000000040C069D1BFC5
S1134EF000000058F16353BE00000080438D7CBC69
S1134F00000000000000000000000080D85FCFBF58
S1134F10000000181F8354BE000000B03F42A2BC32
S1134F2000000000000000000000008067FCCBBF10
S1134F3000000060FAFF53BE00000050E00DB8BC52
S1134F4000000000000000000000000098A8C8BF96
S1134F50000000607A7F35BE000000C0543393BC6B
S1134F60000000000000000000000000DC63C5BF7A
S1134F7000000058D6FF54BE00000000396490BC05
S1134F800000000000000000000000C0AD2DC2BF02
S1134F9000000080A45915BE000000E0484BABBCE3
S1134FA00000000000000000000000801A0BBEBFDB
S1134FB000000050BF3C5ABE000000A0B364B6BC61
S1134FC000000000000000000000008004D6B7BF0D
S1134FD000000040BBCF36BE0000008076CEA8BCE7
S1134FE000000000000000000000008032BBB1BFE0
S1134FF0000000402A0043BE00000028C60CBDBCCF
S11350000000000000000000000000009473A7BF2F
S1135010000000182B3B59BE000000C0E55DA5BC94
S1135020000000000000000000000000EE4397BFF5
S1135030000000A0E6C340BE00000020958DB5BC72
S113504000000000000000000000000000000080DC
S1135050000000000000008000000000000000804C
S1135060000000000000000030B4012464054D007D
S1135070EC420BD85D00EC4208D80C001C436400E1
S11350800443144304D28B4200D1824230BC7047A3
S1135090FCD09942FAD19042F8E70000F8B584B008
S11350A04B005B155B1C01D10A0371D1CA0F01D0FF
S11350B0042400E002244F007F0806000020394940
S11350C032003B00FEF715F90090019100203549AC
S11350D032003B00FEF7AAF8009A019BFDF7E4FFBB
S11350E0FEF737FA02AA03C22CA003C8002907DA84
S11350F06D46002280231B06121A8B410CC501E069
S11351006A4603C232003B00002B06DA00208021ED
S11351100906801A994102000B00684603C89942A7
S113512007DB01DC904204D33000390002AA0CCA28
S113513024E000201B49002906DA6D4680231B0663
S1135140021A8B410CC501E06A4603C232003B00DF
S1135150002B05DA80210906801A994102000B0010
S1135160684603C899420FDB01DC90420CD302224B
S11351706240140002A803C832003B00FFF738F96C
S1135180220000F011FA03E000BF00BF01A003C831
S113519005B0F0BDFFFFFFFFFFFFFF7FCD3B7F6644
S11351A09EA0E63F0000F03F10B588B00A78521C7C
S11351B00A700A785207520F0A700A7804235A4375
S11351C08A185060002008E0042242438A1852687A
S11351D06B46042444431A51401C0828F4DB002184
S11351E000201EE06A4604234343D21852686B46EB
S11351F0042444431B599A4212DA69460422424366
S113520089586A4604234343D21852686B460424DF
S113521044431A516A4604234343D218516001217E
S1135220401C0728DEDB0029D9D1039808B010BD43
S113523080B552480068524901435048016000203B
S11352405049086000205049086000204F49086018
S113525000204F49086003204E4908704E480078EA
S1135260FE2101404C48017000F0E4F8002065493B
S113527008600020654908604848624908600020C9
S11352806149087000F00AF85E4800688021014313
S11352905C48016003205D49086001BD70B50020D1
S11352A05B49086000205B49086000205A49086097
S11352B000205A490860564C00253AE05948EDB29E
S11352C0405D2021FEF7B5FD06005648EDB2405D75
S11352D02021FEF7AEFDF6B2042070432058504A58
S11352E0C9B204234B43D2580243F6B2042070439C
S11352F02250EDB2082D1BDBF6B2042070432018B7
S11353008068474AC9B20423594351580143F6B24D
S113531004204643A01981604148EDB20421694349
S113532040182038006840493E4AEDB2525D885426
S11353306D1CEDB20C2DC1DB70BD38B50500002429
S113534000203A49087004E0287800F029F86D1C20
S1135350641CE4B2042C02DA28780028F4D1E4B204
S1135360042C09DA02E03E2000F01AF820000400C0
S1135370641CC0B20428F6DB31BD00003880044050
S1135380003C080050B0044054B0044058B00440FD
S11353905CB0044000400640014006404B00B28827
S11353A030B52149C0B20200613A1A2A00D220382D
S11353B0C0B20200303A2B2A00D33E203038C0B2AB
S11353C00222424300200FE0184B1B78022463435F
S11353D0C0B21C18164B92B2C0B215185B5D114DC9
S11353E0E4B22C5D0B55401CC0B2022803DA0F4B0B
S11353F01B78042BE8DB0D480078401C0B4908702F
S113540030BD000000300540C60C002004300540CB
S11354101030054014300540183005401C3005405C
S1135420A0800000348B000020300540C50C002013
S113543044550000704700000122D2070118090EEC
S11354407F3910D449421F310FD4001805D2C0014E
S11354501043C84000D5D0437047C0011043C84032
S113546005D440427047002070470042F3D5100035
S113547070470000817810220A4382707047817857
S1135480EF220A40827070478178DF220A408270DE
S11354907047817820220A438270704781780822FD
S11354A00A4382707047817804220A4382707047ED
S11354B0017170470079704710B504002000FFF7B0
S11354C0E8FF2000FFF7D6FF10BD10B50400200050
S11354D0FFF7DAFF2000FFF7D2FF10BD00B5C17857
S11354E08907FCD5C17802220A43C27000BD00B509
S11354F0C078C00701D4012000E0002000BD0D49A0
S1135500096840220A430B490A600B490968A02232
S113551092010A4308490A60A021C900074A1160A0
S1135520A021C900064A11601421417080218170B4
S113553070470000348004403880044060D0044048
S113554064D004400B0E0006070C050E0C060D0A71
S11355500F0A000E0F0E0D0E0000000000000500E3
S1135560000000080F0E0E0E0F020B08070E0F08A6
S11355700E080F0A0E060002030600000B000A06BE
S1135580060207020E0E0D0E0E0C0D0A0F000B067E
S113559000000A06000000000108010801080108D3
S11355A00108010801080000F7B504000D000029F6
S11355B005DA002280231B06121A8B4101E0020047
S11355C00B0000208049002904DA80273F06061AD0
S11355D08F4139008B4204D1824202D165A430CC80
S11355E0ABE066A003C8002905DA002280231B066D
S11355F0121A8B4101E002000B002000290000294F
S113560006DA002680273F06361A8F41300039001B
S11356108B4220DC01DB82421DD25BA003C8220046
S11356202B00FDF741FD0022564BFDF7FFFD060060
S11356300F0055A003C822002B00FDF7F7FD020060
S11356400B0030003900FEF7D3FE04000D00029871
S11356500121014302916B005B0822000020F92123
S113566089050029064604DA80273F06061A8F4179
S113567000E00F00002B05DA80210906801A994109
S113568002000B009F4258DC01DB964255D22200F7
S11356902B0020002900FDF707FD06000F00320053
S11356A03B0020002900FDF7FFFC0090019138A089
S11356B003C832003B00FDF7F7FC37A20CCAFDF724
S11356C0B5FD32003B00FDF7EFFC35A20CCAFDF737
S11356D0ADFD009A019BFDF7E7FC22002B00FDF7CE
S11356E0A5FD04000D0030A003C832003B00FDF707
S11356F0DBFC2FA20CCAFDF799FD32003B00FDF73D
S1135700D3FC2DA20CCAFDF791FD32003B00FDF73E
S1135710CBFC2BA20CCAFDF789FD32003B00FDF740
S1135720C3FC0022284BFDF781FD02000B00200082
S11357302900FEF75DFE04000D000298800702D5E3
S11357408020000645400298400709D020A1800E21
S1135750081803C822002B00FDF768FD04000D00A3
S11357600298000702D58020000645402000290049
S113577003B0F0BD182D4454FB21E93F56CD9E5E85
S11357801426D13F0000F0BFAA4C58E87AB6FB3F7C
S1135790845D57134B57B03FB2934C19ED5EE43F11
S11357A0BEDE02B90240F83FDE39028FC7C0743F43
S11357B08AAB1283000CC83F24D7E508B6D8F03F63
S11357C00F34580E5895FD3F0000F03F00000000D4
S11357D0000000000000000066732D3852C1E03F55
S11357E0182D4454FB21F93F66732D3852C1F03F04
S11357F0182D4454FB21F93F66732D3852C10040E3
S1135800182D4454FB2109403FD038C6A6F104406A
S113581030B4012464054D00EC420BD85D00EC4229
S113582008D80C001C4364000443144304D2994276
S113583000D1904230BC7047FCD08B42FAD18242F6
S1135840F8E70000704700B501000020002902D1EC
S1135850002005E0401C0A00511C1278002AF9D1EE
S113586000BD90420ED1A4460C001C4301286441A3
S113587007D0994205D14C006415641C644000D3E0
S11358800C03644670470000F0B585B006000F00B5
S113589014001D0078004015401C1DD08DA003C8C5
S11358A03040394001D1002816D068004015401C12
S11358B012D088A003C82040294001D100280BD071
S11358C03000390000297BDA002280231B06121ADB
S11358D08B4168460CC075E079004915491C02D11A
S11358E0380300D079E169004915491C01D1280326
S11358F040D178A003C82040294008D1002806D10F
S113590079004915491C35D1380333D10BE06900BE
S11359104915491C0CD128030AD179004915491CA1
S113592028D1380326D100BF00BF6AA003C856E1BE
S113593068A003C8304039401FD100281DD1690038
S11359404A0D0A995118002A22D1290080221206F0
S1135950114000240D005FA003C82040294001D15C
S1135960002805D069004915491C03D1280301D139
S113597000BF00BF2000290031E179004915491C0E
S113598018D1380316D130003900FDF78DFB26E11C
S11359900029DADDA94A914206DB1005290080229C
S11359A0120611400143D4E7A54A2A4008051043D2
S11359B00500D0E700202A00802109060A403CE0C7
S11359C06A4603C20022894B002B04DA80210906AF
S11359D0901A99410B00684603C89942104604DAAC
S11359E02A00802109060A4027E08149002906DAB5
S11359F080231B06121A8B4168460CC001E06A46DC
S1135A0003C232003B00002B06DA00208021090685
S1135A10801A994102000B00684603C899420EDCC3
S1135A2001DB90420BD200BF00BF724908002A007C
S1135A30802109060A40024300201100CFE06EA035
S1135A4003C832003B00FDF72FFB02AA03C27949C9
S1135A50080002A90CC90092019343005B0802A844
S1135A6003C80A008020000602401A4300201100E7
S1135A70009A019BFDF7DAFBFDF7B2FC0490FEF7F8
S1135A80ADFC02AA03C202A80CC85DA003C8FDF7BE
S1135A900BFB02000B0030003900FDF72AFC060066
S1135AA00F0002A80CC858A003C8FDF7FDFA0200B5
S1135AB00B0030003900FDF71CFC06000F007900D4
S1135AC049080022524BFFF7A3FE07D22000290009
S1135AD053E000BFFFFFFFFFFFFFFF7F32003B00EB
S1135AE03900FDF7E1FA6A4603C268460CC849A0CA
S1135AF003C8FDF7D9FA49A20CCAFDF797FB6A4619
S1135B000CCAFDF7D1FA02AA03C268460CC845A024
S1135B1003C8FDF7C9FA45A20CCAFDF787FB6A461C
S1135B200CCAFDF7C1FA0022424BFDF77FFB32009D
S1135B303B00FDF7B9FA06000F0002A803C83200C3
S1135B403B00FDF773FB00223B4BFDF76FFB00901E
S1135B50019102A803C832003B00FDF7CAFB0022F2
S1135B60354BFDF763FB02000B0000980199FEF72B
S1135B703FFC22002B00FDF797FA4B005C0D049BC1
S1135B80E3180A9D5B19002C12D0002B10DD2B4C5E
S1135B90A34206DB230508008021090608401843B8
S1135BA00AE0274C0C401A0522430600170005E0C2
S1135BB008008021090608400026070009A003C840
S1135BC03040394001D1002805D079004915491CDD
S1135BD003D1380301D100BF00BF3000390005B044
S1135BE0F0BD00BFFFFFFFFFFFFFFF7F00C89CC0A9
S1135BF000C89C400000F07FFE822B654715F73FEC
S1135C00000000F8422EE63FF2E4D5BCE7E84B3E44
S1135C100000903C112E5781A03F503F5843128CF6
S1135C208F71BC3F4BE8A541B752013F0BBDF3DA7E
S1135C30E8708C3F0000E03F0000F03FFF070000E9
S1135C40FFFF0F8080B58F48006880210901014360
S1135C508C480160A020C0008B4908608B48006814
S1135C60E02188438949086088480068402101434D
S1135C708648016086489749086097480078402123
S1135C8001439548017095480078FD2101409348EF
S1135C90017093480078FB210140914801709048BD
S1135CA00078802101438E4801708B480078BF2121
S1135CB00140894801708B480078BF210140894820
S1135CC0017085480078E0210140834801708548CF
S1135CD00078E0210140834801707F480078182152
S1135CE001437D4801707F480078032101437D48CA
S1135CF001707C480078402101437A4801707A4859
S1135D0000784006FBD5744800784021014372486E
S1135D100170734800788006800E71490870E12292
S1135D2052027249BB4800F0BDFB01BD00B570488A
S1135D300088002860D16F4800686D4908806E486B
S1135D400078401C6C4908706B480078012807D023
S1135D504CD3032820D011D3052839D02AD345E0C9
S1135D606648006820210143644801606448006873
S1135D70802189050143624801603DE06148006873
S1135D80202101435F4801605D4800688021890546
S1135D9001435B4801602FE058480068202101431B
S1135DA056480160584800688021890501435648D7
S1135DB0016021E051480068202101434F480160FF
S1135DC0514800688021890501434F48016013E070
S1135DD04A48006820210143484801604848006857
S1135DE08021890501434648016005E001204749B7
S1135DF008604748C249086000BD80B5454800684E
S1135E0080214904014343480160434800688021DC
S1135E10090601434048016000F0F8FBB9480078E6
S1135E2010210143B748017001BD80B57A4800785C
S1135E30000713D5032000F01DFD202077490880BA
S1135E4080207749087074480078F721014072482F
S1135E50017001227349022000F085FC7248008819
S1135E6000280ED1962040006F4908806F480278C0
S1135E706F49A548FEF78EFA0F22A349022000F0CD
S1135E8072FC01BD388004400CB00440048004401E
S1135E9000000110674800688021490401436548F7
S1135EA00160654800686549014363480160FA2060
S1135EB0800063490860282062490860FA20400095
S1135EC061490860C748006808210143C54801606A
S1135ED070470000448004400540064001400640ED
S1135EE000400640044006400640064080BB0000D7
S1135EF08E0C002010E4FF1FC30C0020C4F00F40E0
S1135F0004F10F40C8F00F4008F10F409809002039
S1135F101D5F0000047004400070044080B57B489D
S1135F20008800285DD1C820784908807848007826
S1135F300100491C764A1170C0B20A2802DB002015
S1135F40734908707248007800280BD0022819D0D1
S1135F5010D3042826D01DD3062833D02AD30728EB
S1135F6038D03EE06B48FFF7E8F900216A48FEF7B5
S1135F7000FA36E06948FFF7E0F969496648FEF738
S1135F80F8F92EE06748FFF7D8F967496248FEF749
S1135F90F0F926E06548FFF7D0F965495E48FEF759
S1135FA0E8F91EE06348FFF7C8F963495A48FEF769
S1135FB0E0F916E06148FFF7C0F961495648FEF779
S1135FC0D8F90EE08848FFF7B8F988495248FEF737
S1135FD0D0F906E08648FFF7B0F986494E48FEF747
