S01800006164635F64656D6F5F66726565646F6D2E737265639F
S1130000F85F002011040000FF160000F116000044
S1130010F1160000F1160000F1160000F1160000C0
S1130020F1160000F1160000F1160000F1160000B0
S1130030F1160000F1160000F1160000F1160000A0
S1130040F1160000F1160000F1160000F116000090
S1130050F1160000F1160000F1160000F116000080
S1130060F1160000F1160000F1160000F116000070
S1130070F1160000F1160000F1160000F116000060
S1130080F1160000F1160000F1160000F116000050
S1130090F1160000F1160000F1160000F116000040
S11300A0F1160000F1160000F1160000F116000030
S11300B0F1160000F11600001B170000F1160000F5
S11300C0FFFFFFFFFFFFFFFFFFFFFFFFFFFFFFFF3C
S11300D0FFFFFFFFFFFFFFFFFFFFFFFFFFFFFFFF2C
S11300E0FFFFFFFFFFFFFFFFFFFFFFFFFFFFFFFF1C
S11300F0FFFFFFFFFFFFFFFFFFFFFFFFFFFFFFFF0C
S1130400FFFFFFFFFFFFFFFFFFFFFFFFFEFFFFFFF9
S113041000200021002200230024002500260027BC
S113042062B600F0D7FAFEE710B50C001168012996
S113043002D0022904D009E0C0B25168884705E01F
S1130440916808709068401C9060FFE72068401C29
S1130450206010BDF0B51C00002600230370451C6D
S1130460002A1DD00F68002F06D130202870761C7A
S11304703000F0BD30320EE0002FF9D038002100FA
S113048000F03EFA0100080060433A1A002AF1D550
S1130490D043020031320F002A706D1C761CEBE74A
S11304A00F68002F08D130202870761CE0E7373021
S11304B00F0028706D1C761C002FD9D03800210045
S11304C000F021FA010008006043381A0A28EED22D
S11304D03030EDE7F8B50E0015001F00040005E00C
S11304E03A0029003020FFF79FFF641CB442F7DB79
S11304F0F1BDF8B50E0015001F00040005E03A0038
S113050029002020FFF790FF641CB442F7DBF1BD03
S1130510F1B590B01400002000900E0009E0109A8C
S11305206946FFF781FF03E02068241D00990160FC
S1130530761C3078002800D1B8E1252811D00A288B
S113054004D0109A6946FFF76FFF09E0109A6946D4
S11305500D20FFF769FF109A69460A20FFF764FF30
S1130560E6E70027002002E0390001270F430028B6
S11305701FD1761C317820290CD0232912D02B29A5
S113058004D02D29F0D0302908D00FE039000227FB
S11305900F43ECE7390004270F43E8E73900082745
S11305A00F43E4E7390010270F43E0E7761E0120EC
S11305B0DDE700200190002005E0019A0A235A4358
S11305C0511830390191002808D1761C31780A007D
S11305D0303A092AF1D9761E0120F4E7701C01781B
S11305E02E290BD10021FFE7002908D1401C0278F5
S11305F0303A092AF8D9401E0121F5E7401E401C73
S113060001784C2906D0682902D06C2901D002E077
S113061002E001E000E0401E461C30780100582949
S113062071D0622900D1CAE0632900D113E16429A1
S113063013D0692911D06E2900D175E76F2900D133
S1130640B2E0702900D1C5E0732900D10BE175290E
S113065000D1CAE0782956D061E72068241D0690AD
S11306600A23012206A907A8FFF7F4FE050007A83C
S1130670401905900698002803D52D2002906D1C82
S11306800DE0B80703D52B2002906D1C07E0780716
S113069003D5202002906D1C01E000200290002070
S11306A00490380711D50298002804D0109A69469E
S11306B00298FFF7B9FE01200490109B6A46019945
S11306C02800FFF707FF019D11E0F8070FD4109BE6
S11306D06A4601992800FFF70CFF0298002804D00D
S11306E0109A69460298FFF79FFE0120049004982F
S11306F0002807D10298002804D0109A694602986D
S1130700FFF792FE9AE02068241D03901023002234
S113071003A907A8FFF79EFE050007A84019059046
S113072000200490380715D5F8060BD5109A6946B1
S11307303020FFF779FE109A69467820FFF774FE9F
S113074001200490109B6A4601992800FFF7C2FE1D
S1130750019D18E0F80716D4F80600D5AD1C109BCF
S11307606A4601992800FFF7C4FEF8060BD5109AD3
S113077069463020FFF758FE109A69467820FFF743
S113078053FE01200490F8060DD5049800280AD1E0
S1130790109A69463020FFF747FE109A6946782080
S11307A0FFF742FEAD1C49E02068241D0390082396
S11307B0002203A907A8FFF74DFE05001FE02068EB
S11307C0241D03900223002203A907A8FFF742FE79
S11307D0050014E02068241D03901023002203A9BF
S11307E007A8FFF737FE050009E02068241D0390E1
S11307F00A23002203A907A8FFF72CFE050007A877
S113080040190590380707D5109B6A4601992800BE
S1130810FFF760FE019D11E0F8070FD4109B6A46B4
S113082001992800FFF765FE08E0109A69460598CB
S11308300078FFF7F9FD0598401E059005980078AB
S11308400028F2D1F80705D5109B6A4601992800C3
S1130850FFF74FFE6CE62068241DC0B2109A69466B
S1130860FFF7E2FD64E62568241D002D1DD0280055
S113087000F0A0F80290F8070CD4109B6A46019986
S11308800298FFF736FE05E0109A69462878FFF7CC
S1130890CBFD6D1C28780028F6D1F80705D5109BF0
S11308A06A4601990298FFF724FE41E6009811B0C8
S11308B0F0BD0EB4F0B50100012000900448019091
S11308C005AA6846FFF724FE049908B0084700000B
S11308D0A11D0000F446002804D4494200F013F896
S11308E0404260474042002905D45FD000F00BF835
S11308F0404249426047494200F005F84942604796
S113090003460B43E6D40022030A8B420BD20309AD
S11309108B4219D243088B422ED2411A00D201468F
S1130920524110467047FF2209023FD012068B4203
S113093005D3121209028B4201D3121209020309D0
S11309408B4219D300E0090AC3098B4201D3CB01BE
S1130950C01A524183098B4201D38B01C01A524100
S113096043098B4201D34B01C01A524103098B4204
S113097001D30B01C01A5241C3088B4201D3CB00EF
S1130980C01A524183088B4201D38B00C01A5241D2
S113099043088B4201D34B00C01A5241884200D312
S11309A0401A5241CFD201461046704708B500F0B4
S11309B00FF808BD00B501000020002902D1002075
S11309C005E0401C0A00511C1278002AF9D100BD30
S11309D07047000080B500207C49086000F0C4F92D
S11309E000F014FA7A48FFF764FF00F0ABFA00F065
S11309F003F800F0BCFBFEE780B576480068000F02
S1130A004007400F002806D002280CD007D3042842
S1130A1011D00CD313E07048FFF74BFF12E06F487E
S1130A20FFF747FF0EE06E48FFF743FF0AE06D480B
S1130A30FFF73FFF06E06C48FFF73BFF02E06B481F
S1130A40FFF737FF63480068000E4007400F042893
S1130A5002D0052804D007E065A0FFF72AFF06E0CE
S1130A6064A0FFF726FF02E06348FFF722FF59481E
S1130A7000680007000F00280CD001280ED00228BF
S1130A8010D0042812D0052814D0062815D0082820
S1130A9016D019E05948FFF70CFF18E05848FFF743
S1130AA008FF14E08648FFF704FF10E08548FFF7CD
S1130AB000FF0CE08448FFF7FCFE8448FFF7F9FED2
S1130AC08348FFF7F6FE02E08248FFF7F2FE414852
S1130AD00068000D4007400F012803D17E48FFF74E
S1130AE0E8FE02E07D48FFF7E4FE3A480068000CA7
S1130AF04007400F00280BD0022811D00CD3042843
S1130B0016D011D306281BD016D307281CD01FE0FB
S1130B107348FFF7CEFE1EE07248FFF7CAFE1AE0E4
S1130B207148FFF7C6FE16E07048FFF7C2FE12E0F8
S1130B306F48FFF7BEFE0EE06E48FFF7BAFE0AE00C
S1130B406D48FFF7B6FE06E06C48FFF7B2FE02E020
S1130B506B48FFF7AEFE0F2189B26A48FFF7A9FE82
S1130B6000F050F868480068000E0007000F0028E5
S1130B700CD001280ED0032810D0052812D0072845
S1130B8014D0092816D00F2818D01BE05F48FFF7AF
S1130B9090FE1AE05E48FFF78CFE16E05D48FFF712
S1130BA088FE12E05C48FFF784FE0EE05B48FFF726
S1130BB080FE0AE05A48FFF77CFE06E05748FFF73C
S1130BC078FE02E05748FFF774FE01BD008104403F
S1130BD06C1E000024800440741E00007C1E000073
S1130BE0841E00008C1E0000941E0000581A000091
S1130BF0340000003500000084190000C41D00000A
S1130C00D41D000080B503204749087000204749DF
S1130C1008700020464908700020464908700120E9
S1130C20454908708020454908704448007800060A
S1130C30FBD543480178C9B24248FFF73AFE42481F
S1130C400178C9B24148FFF734FE41480178C9B27E
S1130C503E48FFF72EFE3F480178C9B23E48FFF7F1
S1130C6028FE032030490870002030490870002015
S1130C702F49087004202F49087001202E4908705C
S1130C8080202E4908702D4800780006FBD52C489A
S1130C900178C9B23148FFF70CFE2B480178C9B27C
S1130CA02FA0FFF706FE2A480178C9B22748FFF7AC
S1130CB000FE28480178C9B22A48FFF7FAFD01BDB1
S1130CC0301E00003C1E0000481E0000541E0000A0
S1130CD0E41D0000B0190000801A0000DC190000B7
S1130CE0EC1C0000001D0000141D0000281D000065
S1130CF03C1D0000501D0000641D0000781D000014
S1130D002C1C00008C1D00004C800440481700007F
S1130D1084170000C0170000FC17000038180000FA
S1130D20741800006C1B000007000240060002401B
S1130D3005000240040002400F000240000002408F
S1130D400B000240481C00000A0002409C1E0000E8
S1130D500900024008000240A41E0000AC1C000070
S1130D6020256400AC1E000080B51E481E49884240
S1130D700ED0002008E01C49042242438958194A35
S1130D8004234343D150401C822149008842F2D3BA
S1130D90144800F00BFA1549154A1648801A03E066
S1130DA013780B70521C491C0300581E002BF7D1FA
S1130DB011491248401A02E000220A70491C02003C
S1130DC0501E002AF8D10E490E4A0F48801A03E03B
S1130DD013780B70521C491C0300581E002BF7D1CA
S1130DE001BD00BF00E0FF1F000000000000000084
S1130DF0000000000000000010E4FF1F34E4FF1FA7
S1130E0034E4FF1FB41E0000B41E0000E0B53F48E8
S1130E100068F821890101433C4801603C4800789E
S1130E20000705D53A480078082101433848017085
S1130E30802040023749086001200190182000906A
S1130E40042301220021344800F0DAF93349086010
S1130E5032480068FF2800DCFEE731480068802142
S1130E60490201432E4801602C4800680221FFF723
S1130E7047FDFA218900FFF743FD2A490860274806
S1130E800068FA218900FFF73BFD274908602648DE
S1130E90006820490968090F491CFFF734FD2349FC
S1130EA00860224800681B490968090C4907490F72
S1130EB0491CFFF728FD1E49086000F017F8802040
S1130EC080001C490860802080001B490860144889
S1130ED000688021C904014311480160E1225202E3
S1130EE010480168154800F0FDFA07BD80B5FF20E1
S1130EF0001D13490860124800689021090301434A
S1130F000F4801601E2000F054F901BD38800440F0
S1130F1002D007404480044000127A0020E4FF1FFE
S1130F200480044030E4FF1F24E4FF1F28E4FF1F73
S1130F302CE4FF1F049004400890044000A00640E5
S1130F401090044080B558480078800602D5574870
S1130F50FFF7AFFC54480078000702D55448FFF768
S1130F60A8FC51480078400702D55248FFF7A1FC7D
S1130F704D480078800702D54F48FFF79AFC4F4848
S1130F800078000602D54E48FFF793FC4B480078E2
S1130F90400602D54B48FFF78CFC48480078800691
S1130FA002D54948FFF785FC44480078400702D53C
S1130FB04648FFF77EFC41480078000702D54448C4
S1130FC0FFF777FC3D480078800702D54148FFF7DA
S1130FD070FC3A480078C0074FD53F48FFF769FCDA
S1130FE03E480078C0B24007400F032802D13C4875
S1130FF0FFF75FFC39480078C0B24007400F04286F
S113100008D1384800784007400F002802D13648FC
S1131010FFF74FFC31480078C0B24007400F042866
S113102009D130480078C0B24007400F012802D1EE
S11310302E48FFF73EFC29480078C0B24007400F15
S1131040042809D127480078C0B24007400F02287D
S113105002D12748FFF72DFC20480078C0B2400792
S1131060400F042809D11F480078C0B24007400F40
S1131070032802D11F48FFF71CFC10480078C0B2B7
S1131080002810D108480078C0B200280BD10B48C2
S11310900178C9B21848FFF70CFC03480178C9B2BB
S11310A01648FFF706FC01BD01F00740F41A0000E2
S11310B0B41D0000C41C0000D81B000000F0074051
S11310C0D81C00007C1C0000941C00004C1B000079
S11310D0F41B0000101C00002419000001E007406C
S11310E0F41D000002E00740001E00000C1E00007A
S11310F0181E0000241E0000081A0000301A000008
S113110080B5224800688021090501431F48016019
S11311109C201F49087004201D4948701D481C4923
S113112048801D481A498880102019498871002078
S11311301749C8711F20164908721549174800F04D
S1131140C5FA164800F078FA1149144800F0BEFABE
S113115001BD00B5C0B2C006C00E104908600F48FA
S113116000680006FBD50E48006880B200BD80B55B
S11311700C48FFF79EFBFFF7C3FF0320FFF7E9FFCF
S113118080B201000848FFF794FBF6E73C80044076
S113119010E4FF1F341200007856000000B0034032
S11311A010B00340D01A0000641C0000104908600D
S11311B0704770B50400212C03DB0E48FFF779FB60
S11311C015E00D480568012620002021FFF798FB53
S11311D08E402E4308480660084805680126200012
S11311E02021FFF78DFB8E402E430448066070BD1E
S11311F008ED00E0EC18000080E200E000E100E00F
S1131200F8B5A54C2478E4B2A408A407A40F002CD4
S113121007D1A14C2478E40603D59F4C2478A40676
S113122001D5012036E104009C48844201DB2120E1
S113123030E16846027068460078002806D0984875
S1131240201A984A904201D3222023E10D00EDB2E6
S1131250002D00D001251E0076B23000401E192852
S113126001D3412016E1694618200F567FB2380099
S113127018381B2801D342200CE1200076B231003B
S1131280FFF73EFB8849401A8849884201D343202E
S113129000E1200076B23100FFF732FB7FB27843E1
S11312A08349401A8349884201D34520F2E08248A9
S11312B00178C320084081498C4209DAEDB2EA0082
S11312C0102111436A46127892000A43024308E04F
S11312D0EDB2EA00202111436A46127892000A43D3
S11312E00243754802707648844201DA002014E013
S11312F07448844201DA01200FE07348844201DA21
S113130002200AE07148844201DA032005E07048B3
S1131310844201DA042000E005206E490978890737
S1131320890FC000382202408020104308436949D5
S1131330087068460078002810D0002000E0401CA7
S113134000B26549884203DA534909788907F6D51A
S113135051480078800701D423209BE0002000E05E
S1131360401C00B2FA21C900884203DA4A490978CC
S1131370C906F5D448480078C00601D5112089E093
S1131380002000E0401C00B2FA21C900884207DABC
S113139041490978C9B289088907890F0229F1D11D
S11313A03D480078C0B280088007800F022801D031
S11313B01A206FE049480078202101434748017012
S11313C047480078E0210140701EC006C00E084363
S11313D04349087041480078E0210140183FFA066B
S11313E0D20E4020104308433C490870002000E01E
S11313F0401C00B2FA21C900884203DA2649097860
S11314008906F5D524480078800601D4162041E0E9
S1131410002000E0401C00B2FA210901884203DAEE
S11314201D4909784906F5D51B480078400601D4C2
S113143044202FE02A480078C106C90E491C2748D9
S11314400078C506ED0E1835224800788006800E17
S1131450204A1070002000E0401C00B2FA22D200A2
S1131460904207DA0C4A1278D2B292089207920F8D
S1131470032AF1D108480078C0B280088007800FA1
S1131480032801D01B2005E02000C9B2FFF738FA79
S1131490EDB26843F2BD00000640064081F0FA0256
S11314A0C0C62D004181BA0180841E0081841E00C3
S11314B0006CDC02017519030140064001127A0038
S11314C0D1121300A1252600414B4C0081969800AF
S11314D0012D310100400640204E00000540064029
S11314E004400640F8B50020002000200020002021
S11314F0454800688023DB000343434803604348B6
S11315000078F32303404148037008002038404B1F
S1131510984207D300203F4800683F4901403D48B6
S11315200160FEE71400FA20800041430091042684
S11315300098F6B221007143FFF7E5F90100009825
S1131540F6B27143FFF7DFF9844201D2051B00E0D4
S1131550251AF6B2052716E0201A0EE00098FFB20D
S113156021007943FFF7CFF901000098FFB27943D6
S1131570FFF7C9F98442EFD2001B854202D305006C
S1131580FFB23E007F1CFFB2212FE7DB2000642165
S1131590FFF7B9F903214843854232D23000001FD6
S11315A0052805D21D480078022101431B4801701B
S11315B01B480078C0B21F218843711EC9B2C906F6
S11315C0C90E01430800164A1070C906C90E491C09
S11315D000984C432100FFF796F912490978C9B2E3
S11315E01F229143020AD206D20E0A430D490A7001
S11315F00D490870054800780C2101430348017027
S1131600F1BDFEE7000000003480044003A0064062
S113161031C3000004800440FFFFFFF30BA0064029
S11316200AA0064000A0064001A0064000B50279C9
S11316301206FCD5C17100BD10B50400206A40211A
S113164088432062606A0B2188436062606A0721D4
S113165001436162606A802101436162206800067F
S1131660FCD5606A400601D501202EE00020E06C24
S1131670A16C4018616C4018216C4018E16B401853
S1131680A16B401880B20221FFF73AF980210902C8
S1131690014389B2E1620020E06EA16E4018616EE0
S11316A04018216E4018E16D4018A16D401880B2B9
S11316B00221FFF725F980210902014389B2216340
S11316C0606A802188436062002010BD0A788260CD
S11316D04A78C2604A8882618A88C2618A790262D1
S11316E0CA7942620A7A0260497A4160704700000E
S11316F080B5104801681048FFF7DBF801BD0D48BC
S113170000680E480068F821890101430B48016014
S1131710FF20001D0A490860704780B5084800682A
S1131720802149040143064801600648FFF7C1F8D7
S113173001BD000004ED00E05419000038800440AD
S113174010900440181B0000466C61736820736994
S11317507A653A202038204B422070726F6772619C
S11317606D20666C6173682C20302E3235204B421C
S11317702070726F74656374696F6E207265676937
S11317806F6E0000466C6173682073697A653A2055
S1131790203136204B422070726F6772616D206673
S11317A06C6173682C20302E35204B422070726F90
S11317B074656374696F6E20726567696F6E090082
S11317C0466C6173682073697A653A20203332204D
S11317D04B422070726F6772616D20666C61736832
S11317E02C2031204B422070726F74656374696FD2
S11317F06E20726567696F6E09000000466C617344
S1131800682073697A653A20203634204B42207070
S1131810726F6772616D20666C6173682C20322070
S11318204B422070726F74656374696F6E207265C9
S113183067696F6E09000000466C61736820736904
S11318407A653A2020313238204B422070726F671B
S113185072616D20666C6173682C2034204B4220C9
S113186070726F74656374696F6E20726567696FF7
S11318706E090000466C6173682073697A653A20CA
S113188020323536204B422070726F6772616D20B2
S1131890666C6173682C2034204B422070726F7424
S11318A0656374696F6E20726567696F6E09000005
S11318B070B40123002413E00168001D194202D012
S11318C04D466D1E49190C60091D121F042AFAD2D7
S11318D00D00960701D50C80AD1C1A4000D02C7069
S11318E00268001D002AE7D170BC70470A455252B5
S11318F02120496E76616C696420495251207661D9
S11319006C75652070617373656420746F20656EF7
S113191061626C65206972712066756E6374696FAB
S11319206E210A000A0D5B6F75745352535D576143
S11319306B65757020626974207365742066726FBC
S11319406D206C6F7720706F776572206D6F6465A2
S1131950200000000A2A2A2A2A64656661756C74CC
S11319605F69737220656E7465726564206F6E20A2
S1131970766563746F722025642A2A2A2A2A0D0A3E
S11319800A0000000A0D556E7265636F676E697A0E
S11319906564204B696E65746973207375622D6686
S11319A0616D696C79206465766963652E0A0D0042
S11319B00A0D556E7265636F676E697A6564204BB4
S11319C0696E65746973207061636B616765206318
S11319D06F64652E20202020202000000A0D556E03
S11319E07265636F676E697A6564204B696E6574AE
S11319F069732066616D696C7920617474726962BF
S1131A007574652E0A0D00005B6F75745352535D37
S1131A1052434D5F53525330206973205A45524FFD
S1131A202020203D202523303258200D0A0D0000AF
S1131A305B6F75745352535D52434D5F5352533130
S1131A40206973205A45524F2020203D2025233001
S1131A503258200D0A0D00000A0D556E7265636F31
S1131A60676E697A6564204B696E65746973206674
S1131A70616D696C79206465766963652E0A0D0071
S1131A800A0D4C6F7720506F776572204C696E6534
S1131A90207769746820436F72746578204D302B09
S1131AA00A0D0A0D0000000010B5074979441831E9
S1131AB0064C7C44163404E0081D0A6889188847DB
S1131AC00100A142F8D110BD7400000080000000A4
S1131AD00A0D52756E6E696E6720746865206164C4
S1131AE0635F64656D6F2070726F6A6563742E0A3C
S1131AF00D0000000A0D53746F70204D6F64652053
S1131B0041636B6E6F776C65646765204572726FB5
S1131B1072205265736574000A2A2A2A2A41626F68
S1131B20727420627574746F6E20696E746572725B
S1131B307570742A2A2A2A0A0A00000075FDFFFF1C
S1131B402400000010E4FF1F000000000A0D4C6F89
S1131B507373206F662045787465726E616C2043E0
S1131B606C6F636B2052657365740000455252219B
S1131B702120556E646566696E656420666C6173C8
S1131B80682073697A650A0D0000000000F00DF802
S1131B90002801D0FFF788FF00BF00BF002000BF6E
S1131BA000BFFFF7E4FA00F002F80120704780B5A7
S1131BB000F002F801BD00000746384600F002F8C4
S1131BC0FBE7000080B500BF00BF024A11001820E7
S1131BD0ABBEFBE7260002000A0D436F7265204C82
S1131BE06F636B7570204576656E742052657365FE
S1131BF0740000000A0D4C6F7373206F66204C6FE5
S1131C00636B20696E20504C4C20526573657400E0
S1131C100A0D4C6F772D766F6C746167652044658F
S1131C207465637420526573657400000A0D556E03
S1131C307265636F676E697A6564205352414D2003
S1131C4053697A652E0A0D00466C617368207061D1
S1131C5072616D657465722076657273696F6E204A
S1131C60256420000D20206C696768742073656EFC
S1131C70736F722020203D20256920000A0D4578CD
S1131C807465726E616C2050696E20526573657460
S1131C90000000000A0D5761746368646F6728438D
S1131CA04F5029205265736574000000466C6173BF
S1131CB0682076657273696F6E204944202564201C
S1131CC0000000000A0D536F66747761726520523C
S1131CD065736574000000000A0D506F7765722DFE
S1131CE06F6E205265736574000000005352414DBD
S1131CF02053697A653A20302E35204B420A0D0074
S1131D005352414D2053697A653A202031204B4289
S1131D100A0D00005352414D2053697A653A202040
S1131D2032204B420A0D00005352414D2053697A30
S1131D30653A202034204B420A0D00005352414D95
S1131D402053697A653A202038204B420A0D00005E
S1131D505352414D2053697A653A20203136204B45
S1131D60420A0D005352414D2053697A653A2020AE
S1131D703332204B420A0D005352414D2053697AAD
S1131D80653A20203634204B420A0D0053696C69B1
S1131D90636F6E207265762025640A0D20000000B2
S1131DA080B50100C9B20248FFF740FC01BD000044
S1131DB000A006400A0D4D444D2D4150205265733C
S1131DC065740000313670696E20202020202020A8
S1131DD000000000323470696E2020202020202072
S1131DE00000000031303070696E20202020202057
S1131DF0000000004C4C53206578697420000000FA
S1131E00564C4C533020657869742000564C4C5322
S1131E103120657869742000564C4C533220657823
S1131E2069740000564C4C53332065786974200063
S1131E30333270696E2020202020200034387069ED
S1131E406E20202020202000363470696E2020204F
S1131E5020202000383070696E20202020202000AF
S1131E6000BF00BF00BF00BFFFF790FE0A0D0A0DC0
S1131E70000000000A0D4B4C300000000A0D4B4CD2
S1131E80310000000A0D4B4C320000000A0D4B4C8F
S1131E90330000000A0D4B4C340000002025642060
S1131EA0000000002025640A0D00000025640A0DCE
S1071EB0000000002A
S9031E617D
