S01A00005457524B4C34365F44656D6F5F746F7765722E7372656398
S1130000F85F002011040000973B0000893B0000CA
S1130010893B0000893B0000893B0000893B0000CC
S1130020893B0000893B0000893B0000893B0000BC
S1130030893B0000893B0000893B0000893B0000AC
S1130040893B0000893B0000893B0000893B00009C
S1130050893B0000893B0000893B0000893B00008C
S1130060893B0000893B0000893B0000893B00007C
S1130070893B0000893B0000893B0000893B00006C
S1130080893B0000893B0000893B0000893B00005C
S11300907D240000CF2400002B230000893B0000B6
S11300A0991F0000893B0000B9220000893B000031
S11300B0893B0000893B0000B33B0000893B000002
S11300C0FFFFFFFFFFFFFFFFFFFFFFFFFFFFFFFF3C
S11300D0FFFFFFFFFFFFFFFFFFFFFFFFFFFFFFFF2C
S11300E0FFFFFFFFFFFFFFFFFFFFFFFFFFFFFFFF1C
S11300F0FFFFFFFFFFFFFFFFFFFFFFFFFFFFFFFF0C
S1130400FFFFFFFFFFFFFFFFFFFFFFFFFEFFFFFFF9
S113041000200021002200230024002500260027BC
S113042062B602F0F5FCFEE780B539480068802129
S11304300901014336480160A020C0003549086025
S113044035480068E0218843334908603248006831
S11304504021014330480160304831490860314847
S11304600078402101432F4801702F480078FD2176
S113047001402D4801702D480078FB2101402B4894
S113048001702A48007880210143284801702548DA
S11304900078BF2101402348017025480078BF211E
S11304A00140234801701F480078E02101401D48A5
S11304B001701F480078E02101401D48017019486F
S11304C00078182101431748017019480078032166
S11304D0014317480170164800784021014314482D
S11304E00170144800784006FBD50E48007840217E
S11304F001430C4801700D4800788006800E0B49BA
S11305000870E12252020C490C4800F0BBFB01BD0B
S1130510388004400CB00440048004400000011002
S11305204480044005400640014006400040064027
S1130530044006400640064080BB000000A0064080
S113054038B584B0CA480068642100F065FCC94924
S11305500860C9480088002800D0A9E0C5480068A0
S11305600821C943884203DA0820C043C14908600E
S1130570C04800680A2802DB0920BE490860BF4859
S11305800068BC490968884204DABC480068401C19
S1130590BA490860B7480068B8490968884204DA6B
S11305A0B6480068401EB5490860B4480068012890
S11305B013DBB3480068401CB1490860B0480068C8
S11305C0052802D30020AE4908600A20AB49096817
S11305D0401A19214843A8490880A84800680028FF
S11305E012D5A7480068401EA5490860A4480068C1
S11305F0002802D50520A2490860A04800680A30F6
S1130600192148439C4908809E489D490968405CDB
S1130610C00707D59C4800688021890201439A4895
S1130620016006E0994800688021890201439748E7
S11306300160944892490968405C800707D5944852
S113064000688021490001439148016006E0914817
S113065000688021490001438E4801608948884927
S11306600968405C400707D58B4800688021C904AD
S113067001438948016006E0884800688021C90474
S11306800143864801607F487D490968405C000752
S113069007D57D4800688021490201437A480160FA
S11306A006E07A48006880214902014377480160E6
S11306B072480068002800D09AE079480068C007B2
S11306C007D5714800688021890201436E480160A2
S11306D006E06E4800688021890201436B4801608E
S11306E070480068C00603D56F480078002807D01A
S11306F0694800688021C90401436748016006E035
S1130700664800688021C904014364480160674861
S11307100078002807D05C48006880214902014322
S11307205948016006E059480068802149020143A4
S1130730564801605E495B48006800090200D20720
S1130740D20F01205040C0B200F038FC002809D07C
S1130750584801880800401C564A108089B26248F3
S113076000F07FFE614962480068C0080200D207B9
S1130770D20F01205040C0B200F020FC002809D064
S11307805C4801880800401C5A4A108089B25A48C3
S113079000F067FE59480088022100F03DFB36490D
S11307A00988814207DA3A480068802149000143F8
S11307B03748016006E0374800688021490001435A
S11307C0344801602C480088002811D1634800880F
S11307D00A2100F021FB494908804848008828285C
S11307E002DA2820454908804448008822490880C4
S11307F05B490C005B480088022100F00DFB0800F7
S11308002100C0B200F0DAFB00282FD0674802684C
S113081055A1674800F036FE654800F0BFFE654804
S113082040880390634800880290634800880190E0
S11308305E4800680090614800680A2100F0ECFA04
S113084003001C000A4800680A2100F0E5FA0200CF
S1130850230014001D005A4800680A2100F0DCFA45
S113086001002B002200624800F0FBFD05B030BD02
S1130870E0E6FF1F44E8FF1FF2EAFF1F48E8FF1FFE
S113088040E8FF1F0445000008F00F4004F00F404B
S113089048F00F4044F00F4008F10F4004F10F40BE
S11308A000D0034010F00F4013EBFF1F14EBFF1FA9
S11308B017EBFF1F08EBFF1F80B55048006880212D
S11308C0490401434D4801604D48006880210906F0
S11308D001434B48016000F0C5FF4E4800781021E9
S11308E001434C48017001BD2C43000018EBFF1F6D
S11308F090F00F400AEBFF1F4043000006EBFF1F80
S113090080B540480078000713D5032001F0DEF8D5
S113091020203D49088080203C49087039480078EF
S1130920F72101403748017001223B49022001F0C0
S113093046F83A48008800280ED1962040003749EE
S11309400880374802683749194800F09BFD0F2298
S11309501749022001F033F801BD0000F4EAFF1F3B
S113096016EBFF1FE4EAFF1F253469002E480068D8
S11309708021490401432C4801602C4800682C491B
S113098001432A480160FA2080002A49086028208F
S113099029490860FA204000284908605448006842
S11309A0082101435248016070470000FCE7FF1F23
S11309B000E8FF1FDCE7FF1FF6EAFF1FDCE6FF1F6E
S11309C0E4E6FF1F80B500F051FE0A4800880028C5
S11309D00DD100F07FFE47480078082101434548C7
S11309E0017001200449086043480949086001BDB9
S11309F0E03B0000E6EAFF1F98E7FF1F0470044095
S1130A000070044019EBFF1F62E6FF1F60E6FF1F42
S1130A1094E7FF1F08210740D4E9FF1FEEEAFF1FF8
S1130A2000D00340F84300003C80044004800440AC
S1130A300000010108800340248003402880034013
S1130A4000B578480068642100F0E6F9764908604A
S1130A507548006875490968884241D0744800683F
S1130A6015283DD373480088002839D16E480068A2
S1130A700821C943884203DA0820C0436A49086050
S1130A80694800680A2802DB09206749086067484A
S1130A90006865490968884204DA64480068401CB3
S1130AA0624908606048006860490968884204DA5D
S1130AB05E480068401E5D4908605F480068400069
S1130AC05D4908605C480068102803DA5A480068E9
S1130AD0002802D10120584908604B20554908805C
S1130AE000BD80B5554800F07DF9C0B202BD0000DC
S1130AF000800340383005404105000070B50024F3
S1130B00FFF792FC4E4800F0ACFC01F030FB00F023
S1130B10DDF901F0E9FB00F0C9FC01F07BFCFFF713
S1130B20CBFE48484849086048483D49088001F0E0
S1130B3062FD01F009FEFFF719FF01F05CFD444876
S1130B4000F02CFDFFF7CDFF002831D001F06CFE42
S1130B500500EDB229003F4800F083FCEDB2202DE2
S1130B6026D13D4801683D4800F07BFC3C480068C4
S1130B700A2100F051F903001D003A4800680A21D7
S1130B8000F04AF902002B0015001E0025480068F9
S1130B900A2100F041F9010033002A00324800F034
S1130BA060FC3248428831480188314800F059FCE1
S1130BB0254800688047FFF7A3FE2E4800780128E7
S1130BC002D1002C00D101242B480088002812D126
S1130BD014202949088001F01BFD01F033FE01F0C7
S1130BE0F6FEFFF72DFF042001F0FFFD80B2800820
S1130BF080B219490860214800880028A2D10A203F
S1130C001E49088000F0EAFC01F0A3FA1C480078B1
S1130C100028FBD001F01CFB00F006FD92E7000069
S1130C20E6EAFF1FE4E6FF1F4CE8FF1F50E8FF1F42
S1130C30D4E6FF1FECEAFF1F40E4FF1F00A00640BC
S1130C40CC3F0000C509000094E7FF1FB80B00006B
S1130C50FC440000D4410000FCE7FF1F54430000A3
S1130C60DCE6FF1FE0E6FF1F40400000DCE7FF1F5B
S1130C706440000021EBFF1FEAEAFF1FF8EAFF1FB0
S1130C8096E4FF1FF8B5002000200020002000207B
S1130C90454800688023DB0003434348036043481E
S1130CA00078F32303404148037008002038404B88
S1130CB0984207D300203F4800683F4901403D481F
S1130CC00160FEE71400FA208000414300910426ED
S1130CD00098F6B22100714300F0A1F801000098D9
S1130CE0F6B2714300F09BF8844201D2051B00E088
S1130CF0251AF6B2052716E0201A0EE00098FFB276
S1130D002100794300F08BF801000098FFB2794389
S1130D1000F085F88442EFD2001B854202D305001F
S1130D20FFB23E007F1CFFB2212FE7DB20006421CD
S1130D3000F075F803214843854232D23000001F89
S1130D40052805D21D480078022101431B48017083
S1130D501B480078C0B21F218843711EC9B2C9065E
S1130D60C90E01430800164A1070C906C90E491C71
S1130D7000984C43210000F052F812490978C9B296
S1130D801F229143020AD206D20E0A430D490A7069
S1130D900D490870054800780C210143034801708F
S1130DA0F1BDFEE7000000003480044003A00640CB
S1130DB031C3000004800440FFFFFFF30BA0064092
S1130DC00AA0064000A0064001A0064000B5017933
S1130DD08906FCD5C07900BD00B502791206FCD5A0
S1130DE0C17100BD0079202108407047F4460028F5
S1130DF004D4494200F013F84042604740420029BD
S1130E0005D45FD000F00BF84042494260474942A4
S1130E1000F005F84942604703460B43E6D400223C
S1130E20030A8B420BD203098B4219D243088B422B
S1130E302ED2411A00D20146524110467047FF2279
S1130E4009023FD012068B4205D3121209028B42CB
S1130E5001D31212090203098B4219D300E0090AD3
S1130E60C3098B4201D3CB01C01A524183098B427F
S1130E7001D38B01C01A524143098B4201D34B0168
S1130E80C01A524103098B4201D30B01C01A5241CB
S1130E90C3088B4201D3CB00C01A524183088B4252
S1130EA001D38B00C01A524143088B4201D34B003B
S1130EB0C01A5241884200D3401A5241CFD201464F
S1130EC01046704708B501F0C7FD08BDA0204000DA
S1130ED02D4908602D4800688021890201432B4870
S1130EE001602B4800688021890201432848016081
S1130EF0A020400027490860274800688021490055
S1130F0001432548016025480068802149000143C8
S1130F1022480160A020400021490860214800685F
S1130F208021C90401431F4801601F4800688021D3
S1130F30C90401431C480160A02040001B4908600B
S1130F40124800688021490201431048016010489A
S1130F5000688021490201430D480160FF20001D03
S1130F60134908600A48006810218843084908604A
S1130F70FF20001D0F4908600F48006808218843BE
S1130F800D490860704700004490044004F00F408D
S1130F9014F00F4020A0044044F00F4054F00F40E0
S1130FA068D0044004F10F4014F10F404090044015
S1130FB0109004400CB0044094F00F4000B50200BF
S1130FC00020D2B2002A03D00B78002B00D10120DC
S1130FD00A70C0B200BD000010B50C0011680129F0
S1130FE002D0022904D009E0C0B25168884705E064
S1130FF0916808709068401C9060FFE72068401C6E
S1131000206010BDF0B51C00002600230370451CB1
S1131010002A1DD00F68002F06D130202870761CBE
S11310203000F0BD30320EE0002FF9D0380021003E
S1131030FFF7F2FE0100080060433A1A002AF1D5D6
S1131040D043020031320F002A706D1C761CEBE78E
S11310500F68002F08D130202870761CE0E7373065
S11310600F0028706D1C761C002FD9D03800210089
S1131070FFF7D5FE010008006043381A0A28EED2B3
S11310803030EDE7F8B50E0015001F00040005E050
S11310903A0029003020FFF79FFF641CB442F7DBBD
S11310A0F1BDF8B50E0015001F00040005E03A007C
S11310B029002020FFF790FF641CB442F7DBF1BD48
S11310C0F1B590B01400002000900E0009E0109AD1
S11310D06946FFF781FF03E02068241D0099016041
S11310E0761C3078002800D1B8E1252811D00A28D0
S11310F004D0109A6946FFF76FFF09E0109A694619
S11311000D20FFF769FF109A69460A20FFF764FF74
S1131110E6E70027002002E0390001270F430028FA
S11311201FD1761C317820290CD0232912D02B29E9
S113113004D02D29F0D0302908D00FE0390002273F
S11311400F43ECE7390004270F43E8E73900082789
S11311500F43E4E7390010270F43E0E7761E012030
S1131160DDE700200190002005E0019A0A235A439C
S1131170511830390191002808D1761C31780A00C1
S1131180303A092AF1D9761E0120F4E7701C01785F
S11311902E290BD10021FFE7002908D1401C027839
S11311A0303A092AF8D9401E0121F5E7401E401CB7
S11311B001784C2906D0682902D06C2901D002E0BC
S11311C002E001E000E0401E461C3078010058298E
S11311D071D0622900D1CAE0632900D113E16429E6
S11311E013D0692911D06E2900D175E76F2900D178
S11311F0B2E0702900D1C5E0732900D10BE1752953
S113120000D1CAE0782956D061E72068241D0690F1
S11312100A23012206A907A8FFF7F4FE050007A880
S1131220401905900698002803D52D2002906D1CC6
S11312300DE0B80703D52B2002906D1C07E078075A
S113124003D5202002906D1C01E0002002900020B4
S11312500490380711D50298002804D0109A6946E2
S11312600298FFF7B9FE01200490109B6A46019989
S11312702800FFF707FF019D11E0F8070FD4109B2A
S11312806A4601992800FFF70CFF0298002804D051
S1131290109A69460298FFF79FFE01200490049873
S11312A0002807D10298002804D0109A69460298B1
S11312B0FFF792FE9AE02068241D03901023002279
S11312C003A907A8FFF79EFE050007A8401905908B
S11312D000200490380715D5F8060BD5109A6946F6
S11312E03020FFF779FE109A69467820FFF774FEE4
S11312F001200490109B6A4601992800FFF7C2FE62
S1131300019D18E0F80716D4F80600D5AD1C109B13
S11313106A4601992800FFF7C4FEF8060BD5109A17
S113132069463020FFF758FE109A69467820FFF787
S113133053FE01200490F8060DD5049800280AD124
S1131340109A69463020FFF747FE109A69467820C4
S1131350FFF742FEAD1C49E02068241D03900823DA
S1131360002203A907A8FFF74DFE05001FE020682F
S1131370241D03900223002203A907A8FFF742FEBD
S1131380050014E02068241D03901023002203A903
S113139007A8FFF737FE050009E02068241D039025
S11313A00A23002203A907A8FFF72CFE050007A8BB
S11313B040190590380707D5109B6A460199280003
S11313C0FFF760FE019D11E0F8070FD4109B6A46F9
S11313D001992800FFF765FE08E0109A6946059810
S11313E00078FFF7F9FD0598401E059005980078F0
S11313F00028F2D1F80705D5109B6A460199280008
S1131400FFF74FFE6CE62068241DC0B2109A6946AF
S1131410FFF7E2FD64E62568241D002D1DD0280099
S113142001F01BFB0290F8070CD4109B6A4601994B
S11314300298FFF736FE05E0109A69462878FFF710
S1131440CBFD6D1C28780028F6D1F80705D5109B34
S11314506A4601990298FFF724FE41E6009811B00C
S1131460F0BD0EB4F0B501000120009004480190D5
S113147005AA6846FFF724FE049908B0084700004F
S1131480332800000CB4E0B502000020002A09D083
S113149002200090029204AA6846FFF711FE002180
S11314A0029A1170039906B00847000080B5022023
S11314B0594908705948006859490143574801601F
S11314C0554800780321014353480170554800787A
S11314D05449087000205D49086000205C49086098
S11314E05C485A49086000205B49087000F00DF818
S11314F05648006880210143544801600320544940
S113150008608C4800F04AF801BD70B500205349CA
S113151008600020524908600020524908600020F9
S1131520514908604D4C002534E08348EDB2405DDC
S11315302021FFF771FC06007F48EDB2405D2021B9
S1131540FFF76AFCF6B204207043205801228A4057
S11315500243F6B2042070432250EDB2072D18DB8B
S1131560F6B2042070432018806801228A400243A6
S1131570F6B204204643A01982605448EDB2042117
S1131580694340181C38006851496B4AEDB2525DFA
S113159088546D1CEDB20B2DC7DB70BD38B505004A
S11315A0002400206549087004E0287800F0D0F891
S11315B06D1C641CE4B2042C02DA28780028F4D1EF
S11315C0E4B2042C09DA02E02E2000F0C1F8200075
S11315D00400641CC0B20428F6DB31BD1F48006857
S11315E0574908601E480068564908601D4800684D
S11315F0554908601C480068544908600020174990
S11316000860002016490860002016490860002080
S113161015490860704700000040064038800440C7
S1131620003C080001400640454800680B4908603A
S1131630444800680A49086043480068094908604A
S113164042480068084908607047000000300540BF
S1131650043005406300B00810EBFF1F1030054054
S113166014300540183005401C30054080B57348DF
S1131670FFF794FF72480078082101437048017015
S113168070480078082101436E4801706E48007864
S1131690082101436C4801706D4800780121014321
S11316A06B4801706A480078022101436848017060
S11316B06748007804210143654801706448007854
S11316C0082101436248017001BD0000A83A0000EE
S11316D02030054080B55D48FFF760FF584800782A
S11316E0F72101405648017056480078F72101401F
S11316F05448017054480078F72101405248017061
S113170053480078FE210140514801705048007848
S1131710FD2101404E4801704D480078FB210140F5
S11317204B4801704A480078F7210140484801704D
S113173001BD00009C440000184400000FEBFF1F93
S11317405CE7FF1F60E7FF1F64E7FF1F68E7FF1FF9
S113175030B541490978002918D1C0B2312802D0E6
S1131760C0B26C280BD137480078082101433548B2
S1131770017039480078401C3749087030BD314841
S11317800078F72101402F480170F2E7C0B2010050
S113179061391A2900D22038C0B201002B3930290E
S11317A000D32E202B38C0B202214143002023E075
S11317B0274B284CD2B2A45C1B5D0724274D2D78FF
S11317C0AC40A343224C234DD2B2AD5C6355244BB1
S11317D089B2C0B20C181B5D1D4C1E4DD2B2AD5C5B
S11317E0645DDBB21D4D2D78AB402343184C194D7D
S11317F0D2B2AA5CA354401CC0B20228B9DA164A79
S11318001278042AB5DA144A1278521E02235A4373
S1131810C0B21218C0B20028CAD10D4B0D4CD2B2BE
S1131820A45C1B5D0F240D4D2D78AC40A343084CE4
S1131830084DD2B2AD5C6355C9E70000A444000072
S1131840383005402130054034300540AC440000B8
S113185020300540184400000FEBFF1F10EBFF1F62
S1131860283B000080B500202649087000F064F889
S11318709620800100F052F8234908600020224994
S1131880087100202049487108201F49887180216F
S11318901E4801F0F1F801BD10B500241D48006890
S11318A040780A2808D0202812D021280AD02228DB
S11318B013D0AA2816D022E001221749002000F0F4
S11318C07EF81CE007221049002000F078F816E0AA
S11318D020200C490870012411E0222009490870D5
S11318E000240CE08021094801F0C6F8084800787B
S11318F08021014306480170FF200449087020003C
S1131900C0B210BD22EBFF1F5CEAFF1F64EAFF1F99
S113191019EBFF1F58EAFF1F1FEBFF1F010E020AFE
S1131920FF231B021340C9180202FF231B041340A8
S1131930C91800060818704780B56C4800686C49DF
S11319400860002082490870002001F0B3F81820D4
S113195001F0F5F87F480078802101437D4801704B
S11319607C4800780006FBD47B48000A7B49087059
S11319707948000C7A4908707748000E7949087054
S1131980594800780221014357480170764800788D
S11319900121014374480170744800788006800E68
S11319A0724908706B48007840210143694801700E
S11319B0AD48007801210143AB48017001BD30B549
S11319C000230300C0B2002800D08000801C474CD4
S11319D0C0B2042545436459654D2D78ED0718D5EB
S11319E0644D296064490A7041490968C97909024A
S11319F03F4D2D68AD794919D2B289B292B2914264
S1131A0007D2C0B2022804D13949096889795A4AEF
S1131A1011705A49C0B2095C574A1278914211D2E6
S1131A205649C0B2095C544A1278544DC0B22D5C78
S1131A30521B514D2A704E4A1278FE2515404C4ACD
S1131A4015700AE04C49097800224B4D2A70484A27
S1131A50127801251543464A1570C9B23E4AC0B2F0
S1131A60082545435219518009E0424A1268127808
S1131A702270404A1268521C3E4D2A60641C0A00BF
S1131A80511ED2B2002AF0D19649097801229A4017
S1131A9011420DD08821304AC0B208246043115449
S1131AA0904800780121994088438E4908700CE0E1
S1131AB0C821294AC0B208246043115489480078D7
S1131AC00121994001438748017030BD2249C0B2C9
S1131AD08000082250430818408880B2000AC0B22F
S1131AE080B27047000000008020074044E4FF1FDC
S1131AF058EAFF1F05209E49087005209D4908707B
S1131B0009209D49087001209C49087001209C49C6
S1131B10087001209B49087000209B490870002030
S1131B200D49488699480C49486300209849087033
S1131B300020984908809848074948658020B049A2
S1131B400870FF20AF490880AF48034948667047D2
S1131B5021EBFF1F0C21074000E6FF1F9C200740DC
S1131B60B0200740B42007408420074000210740EC
S1131B701AEBFF1F54EAFF1F1BEBFF1F0844000072
S1131B8080B5AF4800684078002860D0052806D0AA
S1131B9006280DD0082854D0092835D060E000224A
S1131BA000210020FFF70BFF0320B249087059E021
S1131BB0A3480068C078012804D022D303280DD09C
S1131BC006D31EE01222AC490020FFF7F8FE1AE00B
S1131BD04322AA490020FFF7F2FE14E0B1489849D5
S1131BE0096889780422514340580278AD489449E1
S1131BF0096889780423594341580020FFF7DFFE20
S1131C0001E000F01FF92DE08D480068C0788C4990
S1131C10096889784018A449087089480068C07820
S1131C208749096889784018002809D0FFF762FFBE
S1131C30002200210020FFF7C2FE01208D49087018
S1131C4010E0012298490020FFF7B9FE0AE00020C5
S1131C50CD4908800222CC490020FFF7B0FE01E004
S1131C6000F0F0F801BD00009420074080B51D4845
S1131C700078FE2101401B4801707148006800781B
S1131C80C006C00EC0B2002803D002281BD00DD35A
S1131C901FE06B4800680078C006C00E002801D120
S1131CA0FFF76EFF8820B949087014E0FFF7F4FDD0
S1131CB0C0B2002803D18820B449087002E0C820CB
S1131CC0B249087007E000F00FF88820AF490870A7
S1131CD001E000F0B7F8AE480078DF210140AC48DD
S1131CE0017001BD1CEBFF1F80B5554800684078AA
S1131CF0002804D0012819D0032827D036E0C6488C
S1131D00007801214E4A126852799140084204D069
S1131D10802040006946088002E00020694608806F
S1131D20022269460020FFF74AFE1FE0BA48007805
S1131D300121434A1268527991408843B649087098
S1131D40002200210020FFF73AFE0FE0B24800789D
S1131D5001213B4A1268527991400143AE48017017
S1131D60002200210020FFF72AFEFFE701BD00004A
S1131D70C4200740C8200740CC200740D02007409B
S1131D80D4200740D820074030E6FF1F14E9FF1F86
S1131D9050E6FF1F52E6FF1F94E9FF1F10B57D4870
S1131DA00178082001407B480078C0B20009C0B225
S1131DB0002811D0C9B2002921D10021734AC0B230
S1131DC0830008246343D154944909780122824052
S1131DD00A439248027012E0C9B2002902D000F00E
S1131DE015F80CE069480078C0B280080007000FBD
S1131DF00D2802D1FFF73AFF01E000F030F810BDE2
S1131E0060E6FF1F62E6FF1FD4E9FF1F80B5194893
S1131E10007803280DD10A4800688078804908704A
S1131E200420144908707F480078012101437D484B
S1131E300170002200210020FFF7C1FD01BD000058
S1131E4058EAFF1F78480078022101437648017060
S1131E5088204E49087020204C49488070476F48BC
S1131E600078012101436D48017088206F49087092
S1131E707047000021EBFF1F68430000283C00006E
S1131E8000B569480078800705D567480078FD21CA
S1131E900140654801706648007880210143644828
S1131EA0017000BD84E4FF1F1EEBFF1FFF205D498E
S1131EB0087000205F49087000205F490870002006
S1131EC05E49087000205E49087000205D49087072
S1131ED000205D49087000205C49087000205C49BE
S1131EE008702020294948805A4828494860C82059
S1131EF02649087020202549488157482349C8604D
S1131F00C8202249087220202049488253481F498A
S1131F10486188201D49087420201C494883504882
S1131F201A49C8618820194908760D203E4908706D
S1131F30FF204C490870FF203D49087000203849B3
S1131F4008707E20484908704848007808210143F9
S1131F504648017045480078042101434348017014
S1131F604248007802210143404801703F4800780C
S1131F70012101433D4801703C4800788021014320
S1131F803A480170704700000CEBFF1F00E6FF1F8A
S1131F90942007409020074080B525480078C0076A
S1131FA002D5FFF783FF35E021480078400702D5CA
S1131FB004201F4908701E480078000601D5FFF769
S1131FC05FFF1B48007800070DD5294800780221DF
S1131FD0014327480170FFF7E1FE15480078082106
S1131FE001431348017012480078C00605D5104813
S1131FF00078102101430E4801700D4800788007D5
S113200008D50B4800780221014309480170FF20DC
S11320101449087001BD000020EBFF1F19EBFF1FDE
S1132020982007401AEBFF1FC020074000E6FF1F5F
S1132030802007401CEBFF1F1DEBFF1FC42007403F
S1132040C8200740CC200740D0200740D4200740B8
S1132050D820074054E8FF1F74E8FF1F94E8FF1FCF
S1132060B4E8FF1F882007408C20074084200740E5
S11320709420074010B57248006804210143704859
S113208001606F480068802188436D4908606C488E
S11320900068C00601D5012000E0002068490968F5
S11320A010229143664A11606549096840229143B0
S11320B0634A11606249096880220A4360490A60E0
S11320C000211EE05F4AC9B2525C1207724B1A60CB
S11320D0714A12688023DB0313436F4A1360584A22
S11320E012685207FBD5564A126804231343544A14
S11320F01360694A1268544BC9B202244C431A5300
S1132100491C0A00514B1B78D2B29A42DAD34C498B
S11321100968802291434A4A11604949096840226A
S11321200A4347490A60C0B2002806D04448006800
S1132130102101434248016005E041480068102134
S113214088433F4908603F480078000752490860C7
S113215010BD3B48006880210143394801604E4866
S113216000688021C90301434B480160704780B572
S11321704A4800682021014348480160002048493A
S113218008600020474908601A2000F0D8FC2C4859
S11321900068454901432A480160294800688021B4
S11321A0014327480160FFF765FF01BD00B53A48C8
S11321B000683E493E4A127802235A4388523B48FB
S11321C03B49097802225143405A1F49384A127840
S11321D002235A43895A401A00B2002807D5002026
S11321E03449334A127802235A43885205E031496C
S11321F02F4A127802235A4388521448007802283E
S11322001CDB2B48007811490978491E884205DAFD
S113221027480078401C2649087002E00020244921
S11322200870084822490978405C00071A49086088
S113223003480068802188430149086000BD00000C
S11322400050044010E4FF1FBCE7FF1F95E4FF1F8C
S113225000B52048007800281CD000201D490870D3
S11322601D48008813490988884203D201201B496C
S1132270087002E0002019490870174840880D4989
S11322804988884203D201201549087002E00020E1
S11322901349087000BD0000045004403880044015
S11322A044A0044040A00440608B87109CE7FF1FBB
S11322B015EBFF1FDCE7FF1F80B5012005490870FF
S11322C0084800680421014306480160FFF76EFFD7
S11322D001BD000096E4FF1F20E4FF1F13EBFF1F66
S11322E014EBFF1F0050044080B53B480068802178
S11322F00904014338480160162000F020FC002046
S11323003649086000203649086036483649086076
S113231002203349086001203449086030480068CD
S1132320012101432E48016001BD00B501202F4960
S113233008602F480078002805D02D480078401EFA
S11323402B49087007E07D20294908702948008836
S1132350401C2849088028480088002804D02648C2
S11323600088401E2449088024480088002804D09E
S113237022480088401E21490880214800880028FE
S113238004D01F480088401E1D4908801D4800884D
S1132390002804D01B480088401E1A4908801A48A7
S11323A00088002804D018480088401E1649088078
S11323B016480088002804D014480088401E134999
S11323C0088013480088002804D011480088401E63
S11323D00F49088000BD00003C80044000700340A9
S11323E018710340C05D0000107103401C7103406C
S11323F094E4FF1FE4EAFF1FEAEAFF1FE6EAFF1F77
S1132400ECEAFF1FEEEAFF1FF0EAFF1FF2EAFF1FEC
S1132410F8EAFF1F80B5314800688021890501432F
S11324202E4801602E4800682E4901402C48016066
S1132430802040002A4908602B4800688021090355
S1132440014329480160142000F079FB152000F0B5
S113245076FB00202549086024480068401D244973
S1132460086024480068142101432248016022487E
S11324700068102101432048016001BD00B51E48D9
S11324800068410709D51A490968491D184A1160AD
S11324901A490968491C194A1160810705D516496A
S11324A0096802220A4314490A60C0070ED512487B
S11324B00068102188431049086000200B49086017
S11324C00D480068102101430B48016000BD0C4811
S11324D00088401C0A490880704700003C80044082
S11324E004B00440FFF8FFFF0070044000D0034034
S11324F008D003401CD0034014D003407CE7FF1FE6
S1132500F6EAFF1F80B5894800F085FB01BD000095
S113251000B5002001E000BF401C2828FBDB00BD03
S113252010B50400814800F053FB3A217F4800F0C5
S11325304BFB7E4800F05EFB7C4800F064FB21000E
S1132540C9B27A4800F040FB784800F053FB774862
S113255000F059FB754800F032FB3B21734800F052
S113256033FB724800F046FB704800F04CFB6F48A8
S113257000F011FB6D4800F01DFB6C4800F026FBD9
S11325806A4800F037FB694800F02BFB674800F00D
S11325901DFB0400FFF7BCFF2000C0B210BD38B51E
S11325A004000D00614800F013FB3A215F4800F07D
S11325B00BFB5E4800F01EFB5C4800F024FB21008E
S11325C0C9B25A4800F000FB584800F013FB5748C2
S11325D000F019FB2900C9B2544800F0F5FA534839
S11325E000F008FB514800F00EFB504800F0F9FAE7
S11325F0FFF78EFF31BD80B5FFF784FF2A20FFF778
S11326008FFF01210143C9B22A20FFF7C8FF01BD92
S113261080B50020FFF784FF0007000F002800D1D9
S113262083E00120FFF77CFF00024149088002207B
S1132630FFF776FF3E490988C0B201433C48018058
S11326403B480021405E00B28010394908800320D5
S1132650FFF766FF0002374908800420FFF760FF98
S113266034490988C0B2014332480180314800210D
S1132670405E00B280102F4908800520FFF750FF0C
S113268000022D4908800620FFF74AFF2A490988DD
S1132690C0B201432848018027480021405E00B2AF
S11326A08010254908800120FFF73AFF00022349E2
S11326B008800220FFF734FF20490988C0B2014393
S11326C01E4801801D480021405E00B200121B49D3
S11326D008800320FFF724FF000219490880042022
S11326E0FFF71EFF16490988C0B201431448018050
S11326F013480021405E00B20012114908800520F1
S1132700FFF70EFF00020F4908800620FFF708FFBD
S11327100C490988C0B201430A48018009480021D4
S1132720405E00B200120749088001BD00700640F7
S1132730FAEAFF1FFCEAFF1FFEEAFF1F00EBFF1F80
S113274002EBFF1F04EBFF1F80B52F4800688021B8
S1132750090501432C4801600F2000F0F0F97D20A9
S11327602A4908700C20294948702948274948807B
S1132770284826498880182024498871072023493D
S1132780C8711F20214908721F20204948721F491F
S1132790214800F0ADFA204800F060FAC0B20028E9
S11327A002D01E48FEF75DFE1D491B4800F0B1FA39
S11327B07520164908701C201449487014481349A0
S11327C048801448114988801020104988710420D9
S11327D00E49C8711F200D4908721F200B49487209
S11327E00A490D4800F084FA01BD00B5C0B2C00624
S11327F0C00E09490860084800680006FBD409486F
S1132800006880B200BD00003C80044080E6FF1FE9
S1132810341200007856000000B00340F04100007C
S1132820AAE6FF1F10B0034080B50548FEF7CEFAB4
S113283002BD80B50100C9B20148FEF7CDFA01BD61
S113284000A0064070B57048008840B26F4900F09F
S113285083FA6F4908606F48008840B26E4900F0FF
S11328607BFA6E4908606E48008840B26D4900F0FA
S113287073FA6D4908606648056865480068454311
S113288066480468654800684443281900F0A8FABB
S11328906649086061480068002805D55F480068FB
S11328A041426348016003E05C4800686049086095
S11328B05F480068C0015D490968FEF7B0FA5D49E8
S11328C008605C480068802802D37F20594908606A
S11328D059485849096804225143405857490860E7
S11328E04E480068012804DB5448006841425348BC
S11328F001604D4806684C4800684643A81900F03A
S11329006FFA4F49086042480068002805D54048DE
S1132910006841424648016003E03D48006844497C
S1132920086043480068C00145490968FEF777FA22
S1132930404908603F480068802802D37F203D4911
S113294008603D483B4909680422514340583D49C9
S113295008602F480068012804DB3A4800684142B7
S113296038480160A01900F03BFA374908602B4849
S11329700068002805D52948006841422C480160B8
S113298003E0264800682A49086029480068C00115
S11329902D490968FEF743FA26490860254800686E
S11329A0802802D37F2023490860234821490968ED
S11329B004225143405825490860184800680128FA
S11329C004DB2248006841422048016070BD00B524
S11329D0164800682D280FD2194800682D280BD2FC
S11329E0194800682D2807D219480088002803D107
S11329F001201849087005E00020164908700A20D3
S1132A001349088000BD000000EBFF1FE8E6FF1F2C
S1132A10C4E6FF1F02EBFF1F0CE7FF1FC8E6FF1F02
S1132A2004EBFF1F30E7FF1FCCE6FF1FD0E6FF1FBC
S1132A3054E7FF1F58E7FF1F20380000DCE6FF1FA4
S1132A40D4E6FF1FE0E6FF1FD8E6FF1FE4E6FF1F02
S1132A50E8EAFF1F0EEBFF1F704700B501000020DE
S1132A60002902D1002005E0401C0A00511C127804
S1132A70002AF9D100BD0000C9B24218521E074B0A
S1132A801A60074A1060074A11700749086007492D
S1132A9008600020064908707047000070E7FF1FB7
S1132AA06CE7FF1F11EBFF1F74E7FF1F78E7FF1FA1
S1132AB012EBFF1F80B5C0B2002803D0022819D042
S1132AC008D324E016480068A021C9020143144831
S1132AD001601CE000F02EF8114800681149014023
S1132AE00F4801600E4800688021C90201430C4868
S1132AF001600CE00A4800680B4901400848016085
S1132B000A48006880218900014308480160084898
S1132B1000688021C90201430548016001BD00002D
S1132B2004800440FFFFFEFFFFFFFBFF38800440EA
S1132B30348004407047000010490860704770B545
S1132B400400212C03DB0E48FEF78BFC15E00D4836
S1132B500568012620002021FEF75EF98E402E43F1
S1132B600848066008480568012620002021FEF771
S1132B7053F98E402E430448066070BD08ED00E012
S1132B80103E000080E200E000E100E081781022C5
S1132B900A43827070478178EF220A40827070473E
S1132BA08178DF220A4082707047817820220A43AC
S1132BB082707047817808220A4382707047817856
S1132BC004220A438270704701717047007970478C
S1132BD010B504002000FFF7E8FF2000FFF7D6FF40
S1132BE010BD10B504002000FFF7DAFF2000FFF746
S1132BF0D2FF10BD00B5C1788907FCD5C178022287
S1132C000A43C27000BD00B5C078C00701D40120DA
S1132C1000E0002000BD0D49096880220A430B49E9
S1132C200A600B490968802212010A4308490A60B4
S1132C3080218900074A116080218900064A1160B9
S1132C401421417080218170704700003480044059
S1132C503880044028B004402CB0044010B504006F
S1132C60206A402188432062606A0B2188436062A5
S1132C70606A072101436162606A802101436162E5
S1132C8020680006FCD5606A400601D501202EE0CC
S1132C900020E06CA16C4018616C4018216C401855
S1132CA0E16B4018A16B401880B20221FEF7B4F822
S1132CB080210902014389B2E1620020E06EA16E25
S1132CC04018616E4018216E4018E16D4018A16DE6
S1132CD0401880B20221FEF79FF8802109020143C7
S1132CE089B22163606A802188436062002010BD3C
S1132CF00A7882604A78C2604A8882618A88C2619E
S1132D008A790262CA7942620A7A0260497A416027
S1132D107047826A0A80C26A4A80026B8A80426B68
S1132D208A71826BCA71C26B0A81026C4A81426CDD
S1132D300A73826C4A73C26C8A73426D0A74826D20
S1132D404A74C26D4A82026E8A82426E8A75826EAB
S1132D50CA75C06E0876704710B588B00A78521CE0
S1132D600A700A785207520F0A700A7804235A43E9
S1132D708A185060002008E0042242438A185268EE
S1132D806B46042444431A51401C0828F4DB0021F8
S1132D9000201EE06A4604234343D21852686B465F
S1132DA0042444431B599A4212DA694604224243DA
S1132DB089586A4604234343D21852686B46042454
S1132DC044431A516A4604234343D21851600121F3
S1132DD0401C0728DEDB0029D9D1039808B010BDB8
S1132DE0F0B504000025FA26B600FA20800037006A
S1132DF020003100FEF713F83018460828000500BB
S1132E006D1CC0B2072801DAB742F0D13000F0BD22
S1132E1080B500207C49086000F0C4F900F014FA81
S1132E207A48FEF71EFB00F0ABFA00F003F8FDF75A
S1132E3065FEFEE780B576480068000F4007400F46
S1132E40002806D002280CD007D3042811D00CD3B4
S1132E5013E07048FEF705FB12E06F48FEF701FB34
S1132E600EE06E48FEF7FDFA0AE06D48FEF7F9FA47
S1132E7006E06C48FEF7F5FA02E06B48FEF7F1FA5B
S1132E8063480068000E4007400F042802D005285C
S1132E9004D007E065A0FEF7E4FA06E064A0FEF7BC
S1132EA0E0FA02E06348FEF7DCFA594800680007DC
S1132EB0000F00280CD001280ED0022810D00428BE
S1132EC012D0052814D0062815D0082816D019E0E9
S1132ED05948FEF7C6FA18E05848FEF7C2FA14E05B
S1132EE08648FEF7BEFA10E08548FEF7BAFA0CE011
S1132EF08448FEF7B6FA8448FEF7B3FA8348FEF72F
S1132F00B0FA02E08248FEF7ACFA41480068000DCE
S1132F104007400F012803D17E48FEF7A2FA02E0E1
S1132F207D48FEF79EFA3A480068000C4007400FBF
S1132F3000280BD0022811D00CD3042816D011D3AA
S1132F4006281BD016D307281CD01FE07348FEF7B1
S1132F5088FA1EE07248FEF784FA1AE07148FEF718
S1132F6080FA16E07048FEF77CFA12E06F48FEF72C
S1132F7078FA0EE06E48FEF774FA0AE06D48FEF740
S1132F8070FA06E06C48FEF76CFA02E06B48FEF754
S1132F9068FA0F2189B26A48FEF763FA00F050F824
S1132FA068480068000E0007000F00280CD00128B4
S1132FB00ED0032810D0052812D0072814D00928D1
S1132FC016D00F2818D01BE05F48FEF74AFA1AE023
S1132FD05E48FEF746FA16E05D48FEF742FA12E054
S1132FE05C48FEF73EFA0EE05B48FEF73AFA0AE068
S1132FF05A48FEF736FA06E05748FEF732FA02E07E
S11330005748FEF72EFA01BD00810440B444000085
S113301024800440BC440000C4440000CC440000AC
S1133020D4440000DC4400007C3F00003400000075
S113303035000000A83E0000C8430000D84300004B
S113304080B50320474908700020474908700020D4
S11330504649087000204649087001204549087017
S1133060802045490870444800780006FBD5434851
S11330700178C9B24248FEF7F4F942480178C9B26E
S11330804148FEF7EEF941480178C9B23E48FEF7DF
S1133090E8F93F480178C9B23E48FEF7E2F9032057
S11330A03049087000203049087000202F4908700A
S11330B004202F49087001202E49087080202E49D1
S11330C008702D4800780006FBD52C480178C9B259
S11330D03148FEF7C6F92B480178C9B22FA0FEF794
S11330E0C0F92A480178C9B22748FEF7BAF9284836
S11330F00178C9B22A48FEF7B4F901BD6044000062
S11331006C4400007844000084440000E84300005C
S1133110D43E0000A43F0000003F000078420000BD
S11331208C420000A0420000B4420000C8420000EB
S1133130DC420000F0420000044300009C41000017
S1133140184300004C8004406C3C0000A83C000084
S1133150E43C0000203D00005C3D0000983D000080
S1133160DC40000007000240060002400500024067
S1133170040002400F000240000002400B00024025
S1133180B84100000A000240E44400000900024083
S113319008000240EC44000038420000202564008E
S11331A0F444000080B51E481E4988420ED0002019
S11331B008E01C49042242438958194A0423434322
S11331C0D150401C822149008842F2D31448FFF7B1
S11331D0B3FC1549154A1648801A03E013780B709E
S11331E0521C491C0300581E002BF7D111491248E8
S11331F0401A02E000220A70491C0200501E002AF4
S1133200F8D10E490E4A0F48801A03E013780B7068
S1133210521C491C0300581E002BF7D101BD00BFEE
S113322000E0FF1F0000000010E4FF1F203A000030
S1133230A83A000000E6FF1F24EBFF1F24EBFF1F4A
S11332401045000010450000E0B53F480068F82133
S1133250890101433C4801603C480078000705D5DA
S11332603A48007808210143384801708020400220
S1133270374908600120019018200090042301229E
S11332800021344800F05AF9334908603248006894
S1133290FF2800DCFEE73148006880214902014331
S11332A02E4801602C4800680221FDF7B5FDFA2183
S11332B08900FDF7B1FD2A49086027480068FA2112
S11332C08900FDF7A9FD27490860264800682049C0
S11332D00968090F491CFDF7A2FD2349086022482B
S11332E000681B490968090C4907490F491CFDF787
S11332F096FD1E49086000F017F8C02080001C49A4
S11333000860C02080001B490860144800688021C0
S1133310C904014311480160E122520210480168C6
S11333201548FDF7AFFC07BD80B5FF20001D13490C
S11333300860124800689021090301430F480160A6
S11333401E20FFF7FCFB01BD3880044002D007407B
S11333504480044000127A0080E7FF1F0480044088
S113336090E7FF1F84E7FF1F88E7FF1F8CE7FF1F1D
S1133370389004403C90044000A006401090044063
S113338080B558480078800602D55748FEF769F89A
S113339054480078000702D55448FEF762F85148B3
S11333A00078400702D55248FEF75BF84D48007894
S11333B0800702D54F48FEF754F84F4800780006BE
S11333C002D54E48FEF74DF84B480078400602D52A
S11333D04B48FEF746F848480078800602D549482D
S11333E0FEF73FF844480078400702D54648FEF708
S11333F038F841480078000702D54448FEF731F810
S11334003D480078800702D54148FEF72AF83A483B
S11334100078C0074FD53F48FEF723F83E480078B0
S1133420C0B24007400F032802D13C48FEF719F808
S113343039480078C0B24007400F042808D1384802
S113344000784007400F002802D13648FEF709F8FB
S113345031480078C0B24007400F042809D13048F1
S11334600078C0B24007400F012802D12E48FDF772
S1133470F8FF29480078C0B24007400F042809D15A
S113348027480078C0B24007400F022802D12748DD
S1133490FDF7E7FF20480078C0B24007400F04283A
S11334A009D11F480078C0B24007400F032802D159
S11334B01F48FDF7D6FF10480078C0B2002810D18D
S11334C008480078C0B200280BD10B480178C9B273
S11334D01848FDF7C6FF03480178C9B21648FDF73E
S11334E0C0FF01BD01F007401C400000B8430000CC
S11334F0504200004841000000F0074064420000D0
S11335000842000020420000BC400000644100006A
S113351080410000483E000001E0074024440000D0
S113352002E00740304400003C44000048440000EE
S1133530544400002C3F0000543F0000F8B5A54C53
S11335402478E4B2A408A407A40F002C07D1A14C4A
S11335502478E40603D59F4C2478A40601D50120E1
S113356036E104009C48844201DB212030E16846B6
S1133570027068460078002806D09848201A984AB5
S1133580904201D3222023E10D00EDB2002D00D0A2
S113359001251E0076B23000401E192801D34120B7
S11335A016E1694618200F567FB2380018381B28D8
S11335B001D342200CE1200076B23100FDF72CFC4F
S11335C08849401A8849884201D3432000E12000F9
S11335D076B23100FDF720FC7FB278438349401A6C
S11335E08349884201D34520F2E082480178C32010
S11335F0084081498C4209DAEDB2EA0010211143F6
S11336006A46127892000A43024308E0EDB2EA00E7
S1133610202111436A46127892000A4302437548F6
S113362002707648844201DA002014E0744884422F
S113363001DA01200FE07348844201DA02200AE033
S11336407148844201DA032005E07048844201DABB
S1133650042000E005206E4909788907890FC0001D
S113366038220240802010430843694908706846A4
S11336700078002810D0002000E0401C00B265490A
S1133680884203DA534909788907F6D55148007806
S1133690800701D423209BE0002000E0401C00B2FE
S11336A0FA21C900884203DA4A490978C906F5D4DF
S11336B048480078C00601D5112089E0002000E0C8
S11336C0401C00B2FA21C900884207DA414909784E
S11336D0C9B289088907890F0229F1D13D480078C8
S11336E0C0B280088007800F022801D01A206FE042
S11336F04948007820210143474801704748007831
S1133700E0210140701EC006C00E08434349087002
S113371041480078E0210140183FFA06D20E4020CB
S1133720104308433C490870002000E0401C00B2EC
S1133730FA21C900884203DA264909788906F5D5B1
S113374024480078800601D4162041E0002000E0DF
S1133750401C00B2FA210901884203DA1D490978A4
S11337604906F5D51B480078400601D444202FE0D3
S11337702A480078C106C90E491C27480078C506A6
S1133780ED0E1835224800788006800E204A10700D
S1133790002000E0401C00B2FA22D200904207DA76
S11337A00C4A1278D2B292089207920F032AF1D1EE
S11337B008480078C0B280088007800F032801D031
S11337C01B2005E02000C9B2FDF726FBEDB26843DB
S11337D0F2BD00000640064081F0FA02C0C62D008A
S11337E04181BA0180841E0081841E00006CDC02C9
S11337F0017519030140064001127A00D112130029
S1133800A1252600414B4C0081969800012D3101E1
S113381000400640204E000005400640044006409B
S113382000000000070000000E000000150000006A
S11338301C000000230000002B00000032000000E8
S11338403900000040000000470000004E00000066
S1133850550000005C000000630000006A000000E6
S11338607100000078000000800000008700000064
S11338708E000000950000009C000000A3000000E2
S1133880AA000000B1000000B8000000BF00000062
S1133890C6000000CE000000D5000000DC000000DF
S11338A0E3000000EA000000F1000000F80000005E
S11338B0FF000000060100000D01000014010000DB
S11338C01B010000230100002A0100003101000057
S11338D0380100003F010000460100004D010000D6
S11338E0540100005B010000620100006901000056
S11338F071010000780100007F01000086010000D2
S11339008D010000940100009B010000A201000051
S1133910A9010000B0010000B7010000BE010000D1
S1133920C6010000CD010000D4010000DB0100004D
S1133930E2010000E9010000F0010000F7010000CD
S1133940FE010000050200000C020000130200004A
S11339501B020000220200002902000030020000C5
S1133960370200003E020000450200004C02000045
S1133970530200005A0200006102000069020000C4
S113398070020000770200007E0200008502000041
S11339908C020000930200009A020000A1020000C1
S11339A0A8020000AF020000B6020000BE02000040
S11339B0C5020000CC020000D3020000DA020000BD
S11339C0E1020000E8020000EF020000F60200003D
S11339D0FD020000040300000C03000013030000B8
S11339E01A03000021030000280300002F03000035
S11339F0360300003D030000440300004B030000B5
S1133A005203000059030000610300006803000032
S1133A106F030000760300007D03000084030000B0
S1133A20090A0001020304050607080B0C0D0E0F1A
S1133A30A000A000A000A000A000A000A0006400BE
S1133A406400640064006400640064006400640052
S1133A500100000054E8FF1F74E8FF1F94E8FF1FF3
S1133A60B4E8FF1FD4E8FF1FF4E8FF1F14E9FF1FA9
S1133A7034E9FF1F54E9FF1F74E9FF1F94E9FF1F96
S1133A80B4E9FF1FD4E9FF1FF4E9FF1F14EAFF1F85
S1133A9034EAFF1F0C4500007C4300009043000003
S1133AA0A44300007D0201000100000002000000A8
S1133AB004000000080000001000000020000000C6
S1133AC0400000008000000000010000000200002F
S1133AD000040000000800000010000000200000A6
S1133AE0004000000080000000000100000002000F
S1133AF00000040000000800000010000000200086
S1133B0000004000000080000000000100000002EE
S1133B100000000400000008000000100000002065
S1133B2000000040000000800000040000020000CB
S1133B3000000F0506000B060F0206030D030D0718
S1133B4007000F070F030000000000000000000042
S1133B500000000007070C0709050E060907010706
S1133B600D07060706000E000007080500000406FE
S1133B700C060307070300060D0308070C040C04D6
S1133B8000000E070E030B0680B5104801681048AC
S1133B90FDF767FC01BD0D4800680E480068F82178
S1133BA0890101430B480160FF20001D0A49086098
S1133BB0704780B5084800688021490401430648DD
S1133BC001600648FDF74DFC01BD000004ED00E076
S1133BD0783E000038800440109004408840000083
S1133BE00D20797A3D5B253033695D2C2020787A6D
S1133BF05B253033695D202C78795B253033695D32
S1133C002C2020504F543D25692C20727463203D94
S1133C102025692C2045313D253033692C2045323F
S1133C203D2530336920000009024300020100C031
S1133C3032090400000102020101052400100105FB
S1133C402401000104240200052406000107058163
S1133C500320000209040100020A00000107058292
S1133C60022000000705030220000000466C617377
S1133C70682073697A653A202038204B422070729C
S1133C806F6772616D20666C6173682C20302E3210
S1133C9035204B422070726F74656374696F6E20B7
S1133CA0726567696F6E0000466C617368207369A2
S1133CB07A653A20203136204B422070726F677249
S1133CC0616D20666C6173682C20302E35204B4268
S1133CD02070726F74656374696F6E2072656769B2
S1133CE06F6E0900466C6173682073697A653A20C7
S1133CF0203332204B422070726F6772616D2066F0
S1133D006C6173682C2031204B422070726F746593
S1133D106374696F6E20726567696F6E09000000D5
S1133D20466C6173682073697A653A2020363420C2
S1133D304B422070726F6772616D20666C617368AC
S1133D402C2032204B422070726F74656374696F4B
S1133D506E20726567696F6E09000000466C6173BE
S1133D60682073697A653A2020313238204B42202A
S1133D7070726F6772616D20666C6173682C203499
S1133D80204B422070726F74656374696F6E207289
S1133D906567696F6E090000466C6173682073691A
S1133DA07A653A2020323536204B422070726F6794
S1133DB072616D20666C6173682C2034204B422044
S1133DC070726F74656374696F6E20726567696F72
S1133DD06E09000070B40123002413E00168001D83
S1133DE0194202D04D466D1E49190C60091D121F5F
S1133DF0042AFAD20D00960701D50C80AD1C1A4096
S1133E0000D02C700268001D002AE7D170BC7047F6
S1133E100A4552522120496E76616C6964204952E8
S1133E20512076616C7565207061737365642074CC
S1133E306F20656E61626C65206972712066756EB3
S1133E406374696F6E210A000A0D5B6F75745352B7
S1133E50535D57616B657570206269742073657476
S1133E602066726F6D206C6F7720706F776572209B
S1133E706D6F6465200000000A2A2A2A2A64656698
S1133E8061756C745F69737220656E7465726564C4
S1133E90206F6E20766563746F722025642A2A2A47
S1133EA02A2A0D0A0A0000000A0D556E7265636F16
S1133EB0676E697A6564204B696E657469732073F3
S1133EC075622D66616D696C7920646576696365D8
S1133ED02E0A0D000A0D556E7265636F676E697A5E
S1133EE06564204B696E65746973207061636B61EE
S1133EF0676520636F64652E202020202020000049
S1133F000A0D556E7265636F676E697A6564204B3E
S1133F10696E657469732066616D696C792061747A
S1133F20747269627574652E0A0D00005B6F757496
S1133F305352535D52434D5F5352533020697320A3
S1133F405A45524F2020203D202523303258200D41
S1133F500A0D00005B6F75745352535D52434D5FFD
S1133F6053525331206973205A45524F2020203D2B
S1133F70202523303258200D0A0D00000A0D556EFD
S1133F807265636F676E697A6564204B696E6574E8
S1133F9069732066616D696C79206465766963650F
S1133FA02E0A0D000A0D4C6F7720506F7765722032
S1133FB04C696E65207769746820436F7274657804
S1133FC0204D302B0A0D0A0D000000000A0D527519
S1133FD06E6E696E6720746865205457522D4B4C81
S1133FE034365F44656D6F2070726F6A6563742E3A
S1133FF00A0D000010B5074979441831064C7C4479
S1134000163404E0081D0A68891888470100A14293
S1134010F8D110BD98000000A40000000A0D5374EC
S11340206F70204D6F64652041636B6E6F776C65B4
S1134030646765204572726F7220526573657400FF
S11340400A0D20797A3D5B253033695D2C20207878
S11340507A5B253033695D202C78795B25303369B0
S11340605D2000000A0D2020456C656374726F6446
S113407065313D2025692C20456C656374726F643D
S11340806532203D202569000A2A2A2A2A41626FC6
S1134090727420627574746F6E20696E74657272C6
S11340A07570742A2A2A2A0A0A00000029FDFFFFD3
S11340B02405000000E6FF1F000000000A0D4C6FFD
S11340C07373206F662045787465726E616C20434B
S11340D06C6F636B20526573657400004552522106
S11340E02120556E646566696E656420666C617333
S11340F0682073697A650A0D0000000000F00DF86D
S1134100002801D0FFF776FF00BF00BF002000BFEA
S113411000BFFCF7F3FC00F002F80120704780B503
S113412000F002F801BD00000746384600F002F82E
S1134130FBE7000080B500BF00BF024A1100182051
S1134140ABBEFBE7260002000A0D436F7265204CEC
S11341506F636B7570204576656E74205265736568
S1134160740000000A0D4C6F7373206F66204C6F4F
S1134170636B20696E20504C4C205265736574004B
S11341800A0D4C6F772D766F6C74616765204465FA
S11341907465637420526573657400000A0D556E6E
S11341A07265636F676E697A6564205352414D206E
S11341B053697A652E0A0D00466C6173682070613C
S11341C072616D657465722076657273696F6E20B5
S11341D0256420000A0D20526563656976656420B4
S11341E063686172203D202563200A0D00000000F1
S11341F04144432063616C6962726174696F6E202B
S11342006572726F720000000A0D45787465726EF3
S1134210616C2050696E2052657365740000000063
S11342200A0D5761746368646F6728434F502920EF
S11342305265736574000000466C6173682076658E
S11342407273696F6E2049442025642000000000C9
S11342500A0D536F667477617265205265736574D5
S1134260000000000A0D506F7765722D6F6E2052AA
S113427065736574000000005352414D2053697A00
S1134280653A20302E35204B420A0D005352414DE1
S11342902053697A653A202031204B420A0D0000F0
S11342A05352414D2053697A653A202032204B42C3
S11342B00A0D00005352414D2053697A653A20207B
S11342C034204B420A0D00005352414D2053697A69
S11342D0653A202038204B420A0D00005352414DCC
S11342E02053697A653A20203136204B420A0D006A
S11342F05352414D2053697A653A20203332204B82
S1134300420A0D005352414D2053697A653A2020E8
S11343103634204B420A0D0053696C69636F6E207A
S11343207265762025640A0D200000000A0D2053D2
S1134330573120636C69636B202569200A0D0000E6
S11343400A0D2053573220636C69636B2025692062
S11343500A0D00000A0D206164633A20706F742016
S1134360203D2025690000001201100102000020F8
S1134370A2150FA50000010203010000140346006A
S11343807200650065007300630061006C006500E5
S113439012035500530042002D0055004100520005
S11343A054000000120354004500530054005F0001
S11343B031002E00300000000A0D4D444D2D4150B7
S11343C02052657365740000313670696E202020B8
S11343D02020202000000000323470696E2020204C
S11343E0202020200000000031303070696E202031
S11343F020202020000000000D20525443203D20A6
S11344002535692073000000202020202020202052
S11344102020202020202020161803141701000C2F
S11344200D0E0F004C4C5320657869742000000079
S1134430564C4C533020657869742000564C4C53CC
S11344403120657869742000564C4C5332206578CD
S113445069740000564C4C5333206578697420000D
S1134460333270696E202020202020003438706997
S11344706E20202020202000363470696E202020F9
S113448020202000383070696E2020202020200059
S113449000BF00BF00BF00BFFFF730FE313233352D
S11344A000000000313838380000000020202020AF
S11344B0000000000A0D0A0D000000000A0D4B4C1C
S11344C0300000000A0D4B4C310000000A0D4B4C2B
S11344D0320000000A0D4B4C330000000A0D4B4C17
S11344E03400000020256420000000002025640A18
S11344F00D00000025640A0D00000000383838382B
S11345000000000001020408000000000403090484
S903449127
